{
  "abi": [
    {
      "type": "constructor",
      "inputs": [],
      "stateMutability": "nonpayable"
    },
    {
      "type": "function",
      "name": "DEFAULT_ADMIN_ROLE",
      "inputs": [],
      "outputs": [
        {
          "name": "",
          "type": "bytes32",
          "internalType": "bytes32"
        }
      ],
      "stateMutability": "view"
    },
    {
      "type": "function",
      "name": "EVENT_EMITTER_ROLE",
      "inputs": [],
      "outputs": [
        {
          "name": "",
          "type": "bytes32",
          "internalType": "bytes32"
        }
      ],
      "stateMutability": "view"
    },
    {
      "type": "function",
      "name": "EVENT_SETTLER_ROLE",
      "inputs": [],
      "outputs": [
        {
          "name": "",
          "type": "bytes32",
          "internalType": "bytes32"
        }
      ],
      "stateMutability": "view"
    },
    {
      "type": "function",
      "name": "acceptedToken",
      "inputs": [],
      "outputs": [
        {
          "name": "",
          "type": "address",
          "internalType": "contract IERC20"
        }
      ],
      "stateMutability": "view"
    },
    {
      "type": "function",
      "name": "addCondition",
      "inputs": [
        {
          "name": "eventId",
          "type": "uint256",
          "internalType": "uint256"
        },
        {
          "name": "price",
          "type": "uint256",
          "internalType": "uint256"
        },
        {
          "name": "conditionDesc",
          "type": "string",
          "internalType": "string"
        }
      ],
      "outputs": [],
      "stateMutability": "nonpayable"
    },
    {
      "type": "function",
      "name": "addEventEmitter",
      "inputs": [
        {
          "name": "account",
          "type": "address",
          "internalType": "address"
        }
      ],
      "outputs": [],
      "stateMutability": "nonpayable"
    },
    {
      "type": "function",
      "name": "addEventSettler",
      "inputs": [
        {
          "name": "account",
          "type": "address",
          "internalType": "address"
        }
      ],
      "outputs": [],
      "stateMutability": "nonpayable"
    },
    {
      "type": "function",
      "name": "bet",
      "inputs": [
        {
          "name": "eventId",
          "type": "uint256",
          "internalType": "uint256"
        },
        {
          "name": "conditionId",
          "type": "uint256",
          "internalType": "uint256"
        },
        {
          "name": "optionUint",
          "type": "uint8",
          "internalType": "uint8"
        },
        {
          "name": "amount",
          "type": "uint256",
          "internalType": "uint256"
        }
      ],
      "outputs": [
        {
          "name": "",
          "type": "bool",
          "internalType": "bool"
        }
      ],
      "stateMutability": "payable"
    },
    {
      "type": "function",
      "name": "buyToken",
      "inputs": [],
      "outputs": [
        {
          "name": "",
          "type": "bool",
          "internalType": "bool"
        }
      ],
      "stateMutability": "payable"
    },
    {
      "type": "function",
      "name": "claim",
      "inputs": [
        {
          "name": "eventId",
          "type": "uint256",
          "internalType": "uint256"
        },
        {
          "name": "conditionId",
          "type": "uint256",
          "internalType": "uint256"
        }
      ],
      "outputs": [],
      "stateMutability": "nonpayable"
    },
    {
      "type": "function",
      "name": "claimMon",
      "inputs": [
        {
          "name": "amount",
          "type": "uint256",
          "internalType": "uint256"
        }
      ],
      "outputs": [
        {
          "name": "",
          "type": "bool",
          "internalType": "bool"
        }
      ],
      "stateMutability": "nonpayable"
    },
    {
      "type": "function",
      "name": "eventIds",
      "inputs": [
        {
          "name": "",
          "type": "uint256",
          "internalType": "uint256"
        }
      ],
      "outputs": [
        {
          "name": "",
          "type": "uint256",
          "internalType": "uint256"
        }
      ],
      "stateMutability": "view"
    },
    {
      "type": "function",
      "name": "eventNonce",
      "inputs": [],
      "outputs": [
        {
          "name": "",
          "type": "uint256",
          "internalType": "uint256"
        }
      ],
      "stateMutability": "view"
    },
    {
      "type": "function",
      "name": "events",
      "inputs": [
        {
          "name": "",
          "type": "uint256",
          "internalType": "uint256"
        }
      ],
      "outputs": [
        {
          "name": "id",
          "type": "uint256",
          "internalType": "uint256"
        },
        {
          "name": "startTime",
          "type": "uint256",
          "internalType": "uint256"
        },
        {
          "name": "endTime",
          "type": "uint256",
          "internalType": "uint256"
        },
        {
          "name": "conditionCount",
          "type": "uint256",
          "internalType": "uint256"
        },
        {
          "name": "topic",
          "type": "string",
          "internalType": "string"
        },
        {
          "name": "creator",
          "type": "address",
          "internalType": "address"
        },
        {
          "name": "settled",
          "type": "bool",
          "internalType": "bool"
        },
        {
          "name": "eventType",
          "type": "uint8",
          "internalType": "uint8"
        }
      ],
      "stateMutability": "view"
    },
    {
      "type": "function",
      "name": "getEstimatedPrice",
      "inputs": [
        {
          "name": "eventId",
          "type": "uint256",
          "internalType": "uint256"
        },
        {
          "name": "conditionId",
          "type": "uint256",
          "internalType": "uint256"
        },
        {
          "name": "amount",
          "type": "uint256",
          "internalType": "uint256"
        },
        {
          "name": "optionUint",
          "type": "uint8",
          "internalType": "uint8"
        }
      ],
      "outputs": [
        {
          "name": "price",
          "type": "uint256",
          "internalType": "uint256"
        },
        {
          "name": "cost",
          "type": "uint256",
          "internalType": "uint256"
        }
      ],
      "stateMutability": "view"
    },
    {
      "type": "function",
      "name": "getEventInfo",
      "inputs": [
        {
          "name": "eventId",
          "type": "uint256",
          "internalType": "uint256"
        }
      ],
      "outputs": [
        {
          "name": "",
          "type": "tuple",
          "internalType": "struct GuessTokenBase.GuessEventInfo",
          "components": [
            {
              "name": "id",
              "type": "uint256",
              "internalType": "uint256"
            },
            {
              "name": "startTime",
              "type": "uint256",
              "internalType": "uint256"
            },
            {
              "name": "endTime",
              "type": "uint256",
              "internalType": "uint256"
            },
            {
              "name": "conditionCount",
              "type": "uint256",
              "internalType": "uint256"
            },
            {
              "name": "topic",
              "type": "string",
              "internalType": "string"
            },
            {
              "name": "creator",
              "type": "address",
              "internalType": "address"
            },
            {
              "name": "settled",
              "type": "bool",
              "internalType": "bool"
            },
            {
              "name": "eventType",
              "type": "uint8",
              "internalType": "uint8"
            }
          ]
        }
      ],
      "stateMutability": "view"
    },
    {
      "type": "function",
      "name": "getRoleAdmin",
      "inputs": [
        {
          "name": "role",
          "type": "bytes32",
          "internalType": "bytes32"
        }
      ],
      "outputs": [
        {
          "name": "",
          "type": "bytes32",
          "internalType": "bytes32"
        }
      ],
      "stateMutability": "view"
    },
    {
      "type": "function",
      "name": "getUserBet",
      "inputs": [
        {
          "name": "eventId",
          "type": "uint256",
          "internalType": "uint256"
        },
        {
          "name": "conditionId",
          "type": "uint256",
          "internalType": "uint256"
        },
        {
          "name": "user",
          "type": "address",
          "internalType": "address"
        },
        {
          "name": "optionUint",
          "type": "uint8",
          "internalType": "uint8"
        }
      ],
      "outputs": [
        {
          "name": "",
          "type": "uint256",
          "internalType": "uint256"
        }
      ],
      "stateMutability": "view"
    },
    {
      "type": "function",
      "name": "getUserPaid",
      "inputs": [
        {
          "name": "eventId",
          "type": "uint256",
          "internalType": "uint256"
        },
        {
          "name": "conditionId",
          "type": "uint256",
          "internalType": "uint256"
        },
        {
          "name": "user",
          "type": "address",
          "internalType": "address"
        },
        {
          "name": "optionUint",
          "type": "uint8",
          "internalType": "uint8"
        }
      ],
      "outputs": [
        {
          "name": "",
          "type": "uint256",
          "internalType": "uint256"
        }
      ],
      "stateMutability": "view"
    },
    {
      "type": "function",
      "name": "globalNonce",
      "inputs": [],
      "outputs": [
        {
          "name": "",
          "type": "uint256",
          "internalType": "uint256"
        }
      ],
      "stateMutability": "view"
    },
    {
      "type": "function",
      "name": "grantRole",
      "inputs": [
        {
          "name": "role",
          "type": "bytes32",
          "internalType": "bytes32"
        },
        {
          "name": "account",
          "type": "address",
          "internalType": "address"
        }
      ],
      "outputs": [],
      "stateMutability": "nonpayable"
    },
    {
      "type": "function",
      "name": "hasRole",
      "inputs": [
        {
          "name": "role",
          "type": "bytes32",
          "internalType": "bytes32"
        },
        {
          "name": "account",
          "type": "address",
          "internalType": "address"
        }
      ],
      "outputs": [
        {
          "name": "",
          "type": "bool",
          "internalType": "bool"
        }
      ],
      "stateMutability": "view"
    },
    {
      "type": "function",
      "name": "initialize",
      "inputs": [
        {
          "name": "_MultisiteWallet",
          "type": "address",
          "internalType": "address"
        }
      ],
      "outputs": [],
      "stateMutability": "nonpayable"
    },
    {
      "type": "function",
      "name": "pause",
      "inputs": [],
      "outputs": [],
      "stateMutability": "nonpayable"
    },
    {
      "type": "function",
      "name": "paused",
      "inputs": [],
      "outputs": [
        {
          "name": "",
          "type": "bool",
          "internalType": "bool"
        }
      ],
      "stateMutability": "view"
    },
    {
      "type": "function",
      "name": "platformFee",
      "inputs": [],
      "outputs": [
        {
          "name": "",
          "type": "uint256",
          "internalType": "uint256"
        }
      ],
      "stateMutability": "view"
    },
    {
      "type": "function",
      "name": "renounceRole",
      "inputs": [
        {
          "name": "role",
          "type": "bytes32",
          "internalType": "bytes32"
        },
        {
          "name": "callerConfirmation",
          "type": "address",
          "internalType": "address"
        }
      ],
      "outputs": [],
      "stateMutability": "nonpayable"
    },
    {
      "type": "function",
      "name": "revokeRole",
      "inputs": [
        {
          "name": "role",
          "type": "bytes32",
          "internalType": "bytes32"
        },
        {
          "name": "account",
          "type": "address",
          "internalType": "address"
        }
      ],
      "outputs": [],
      "stateMutability": "nonpayable"
    },
    {
      "type": "function",
      "name": "sendGuessEvent",
      "inputs": [
        {
          "name": "eventType",
          "type": "uint8",
          "internalType": "uint8"
        },
        {
          "name": "startTime",
          "type": "uint256",
          "internalType": "uint256"
        },
        {
          "name": "endTime",
          "type": "uint256",
          "internalType": "uint256"
        },
        {
          "name": "topic",
          "type": "string",
          "internalType": "string"
        }
      ],
      "outputs": [
        {
          "name": "",
          "type": "uint256",
          "internalType": "uint256"
        }
      ],
      "stateMutability": "nonpayable"
    },
    {
      "type": "function",
      "name": "setAcceptedToken",
      "inputs": [
        {
          "name": "token",
          "type": "address",
          "internalType": "address"
        }
      ],
      "outputs": [],
      "stateMutability": "nonpayable"
    },
    {
      "type": "function",
      "name": "setPlatformFee",
      "inputs": [
        {
          "name": "fee",
          "type": "uint256",
          "internalType": "uint256"
        }
      ],
      "outputs": [],
      "stateMutability": "nonpayable"
    },
    {
      "type": "function",
      "name": "settleCondition",
      "inputs": [
        {
          "name": "eventId",
          "type": "uint256",
          "internalType": "uint256"
        },
        {
          "name": "conditionId",
          "type": "uint256",
          "internalType": "uint256"
        },
        {
          "name": "result",
          "type": "uint8",
          "internalType": "uint8"
        }
      ],
      "outputs": [],
      "stateMutability": "nonpayable"
    },
    {
      "type": "function",
      "name": "supportsInterface",
      "inputs": [
        {
          "name": "interfaceId",
          "type": "bytes4",
          "internalType": "bytes4"
        }
      ],
      "outputs": [
        {
          "name": "",
          "type": "bool",
          "internalType": "bool"
        }
      ],
      "stateMutability": "view"
    },
    {
      "type": "function",
      "name": "uintToEnum",
      "inputs": [
        {
          "name": "value",
          "type": "uint8",
          "internalType": "uint8"
        }
      ],
      "outputs": [
        {
          "name": "",
          "type": "uint8",
          "internalType": "enum GuessTokenBase.EventType"
        }
      ],
      "stateMutability": "pure"
    },
    {
      "type": "function",
      "name": "uintToOption",
      "inputs": [
        {
          "name": "value",
          "type": "uint8",
          "internalType": "uint8"
        }
      ],
      "outputs": [
        {
          "name": "",
          "type": "uint8",
          "internalType": "enum GuessTokenBase.Option"
        }
      ],
      "stateMutability": "pure"
    },
    {
      "type": "function",
      "name": "unpause",
      "inputs": [],
      "outputs": [],
      "stateMutability": "nonpayable"
    },
    {
      "type": "function",
      "name": "userBets",
      "inputs": [
        {
          "name": "",
          "type": "address",
          "internalType": "address"
        },
        {
          "name": "",
          "type": "uint256",
          "internalType": "uint256"
        },
        {
          "name": "",
          "type": "uint256",
          "internalType": "uint256"
        },
        {
          "name": "",
          "type": "uint8",
          "internalType": "enum GuessTokenBase.Option"
        }
      ],
      "outputs": [
        {
          "name": "",
          "type": "uint256",
          "internalType": "uint256"
        }
      ],
      "stateMutability": "view"
    },
    {
      "type": "function",
      "name": "userPaid",
      "inputs": [
        {
          "name": "",
          "type": "address",
          "internalType": "address"
        },
        {
          "name": "",
          "type": "uint256",
          "internalType": "uint256"
        },
        {
          "name": "",
          "type": "uint256",
          "internalType": "uint256"
        },
        {
          "name": "",
          "type": "uint8",
          "internalType": "enum GuessTokenBase.Option"
        }
      ],
      "outputs": [
        {
          "name": "",
          "type": "uint256",
          "internalType": "uint256"
        }
      ],
      "stateMutability": "view"
    },
    {
      "type": "function",
      "name": "withdraw",
      "inputs": [],
      "outputs": [],
      "stateMutability": "nonpayable"
    },
    {
      "type": "function",
      "name": "withdrawErc20",
      "inputs": [
        {
          "name": "token",
          "type": "address",
          "internalType": "address"
        },
        {
          "name": "amount",
          "type": "uint256",
          "internalType": "uint256"
        }
      ],
      "outputs": [],
      "stateMutability": "nonpayable"
    },
    {
      "type": "event",
      "name": "BetPlaced",
      "inputs": [
        {
          "name": "globalNonce",
          "type": "uint256",
          "indexed": true,
          "internalType": "uint256"
        },
        {
          "name": "eventId",
          "type": "uint256",
          "indexed": true,
          "internalType": "uint256"
        },
        {
          "name": "conditionId",
          "type": "uint256",
          "indexed": true,
          "internalType": "uint256"
        },
        {
          "name": "user",
          "type": "address",
          "indexed": false,
          "internalType": "address"
        },
        {
          "name": "option",
          "type": "uint8",
          "indexed": false,
          "internalType": "uint8"
        },
        {
          "name": "amount",
          "type": "uint256",
          "indexed": false,
          "internalType": "uint256"
        },
        {
          "name": "useAmt",
          "type": "uint256",
          "indexed": false,
          "internalType": "uint256"
        }
      ],
      "anonymous": false
    },
    {
      "type": "event",
      "name": "ClaimReward",
      "inputs": [
        {
          "name": "globalNonce",
          "type": "uint256",
          "indexed": true,
          "internalType": "uint256"
        },
        {
          "name": "eventId",
          "type": "uint256",
          "indexed": true,
          "internalType": "uint256"
        },
        {
          "name": "conditionId",
          "type": "uint256",
          "indexed": true,
          "internalType": "uint256"
        },
        {
          "name": "user",
          "type": "address",
          "indexed": false,
          "internalType": "address"
        },
        {
          "name": "userPaid",
          "type": "uint256",
          "indexed": false,
          "internalType": "uint256"
        },
        {
          "name": "userStake",
          "type": "uint256",
          "indexed": false,
          "internalType": "uint256"
        },
        {
          "name": "thisReward",
          "type": "uint256",
          "indexed": false,
          "internalType": "uint256"
        }
      ],
      "anonymous": false
    },
    {
      "type": "event",
      "name": "ConditionAdded",
      "inputs": [
        {
          "name": "globalNonce",
          "type": "uint256",
          "indexed": true,
          "internalType": "uint256"
        },
        {
          "name": "eventId",
          "type": "uint256",
          "indexed": true,
          "internalType": "uint256"
        },
        {
          "name": "conditionId",
          "type": "uint256",
          "indexed": true,
          "internalType": "uint256"
        },
        {
          "name": "price",
          "type": "uint256",
          "indexed": false,
          "internalType": "uint256"
        },
        {
          "name": "description",
          "type": "string",
          "indexed": false,
          "internalType": "string"
        }
      ],
      "anonymous": false
    },
    {
      "type": "event",
      "name": "ConditionSettled",
      "inputs": [
        {
          "name": "globalNonce",
          "type": "uint256",
          "indexed": true,
          "internalType": "uint256"
        },
        {
          "name": "eventId",
          "type": "uint256",
          "indexed": true,
          "internalType": "uint256"
        },
        {
          "name": "conditionId",
          "type": "uint256",
          "indexed": true,
          "internalType": "uint256"
        },
        {
          "name": "result",
          "type": "uint8",
          "indexed": false,
          "internalType": "uint8"
        },
        {
          "name": "totalReward",
          "type": "uint256",
          "indexed": false,
          "internalType": "uint256"
        },
        {
          "name": "thisTimeProtocolFee",
          "type": "uint256",
          "indexed": false,
          "internalType": "uint256"
        },
        {
          "name": "settler",
          "type": "address",
          "indexed": false,
          "internalType": "address"
        }
      ],
      "anonymous": false
    },
    {
      "type": "event",
      "name": "EventCreated",
      "inputs": [
        {
          "name": "globalNonce",
          "type": "uint256",
          "indexed": true,
          "internalType": "uint256"
        },
        {
          "name": "eventId",
          "type": "uint256",
          "indexed": true,
          "internalType": "uint256"
        },
        {
          "name": "startTime",
          "type": "uint256",
          "indexed": false,
          "internalType": "uint256"
        },
        {
          "name": "endTime",
          "type": "uint256",
          "indexed": false,
          "internalType": "uint256"
        },
        {
          "name": "eventType",
          "type": "uint8",
          "indexed": false,
          "internalType": "uint8"
        },
        {
          "name": "topic",
          "type": "string",
          "indexed": false,
          "internalType": "string"
        },
        {
          "name": "creator",
          "type": "address",
          "indexed": true,
          "internalType": "address"
        }
      ],
      "anonymous": false
    },
    {
      "type": "event",
      "name": "Initialized",
      "inputs": [
        {
          "name": "version",
          "type": "uint64",
          "indexed": false,
          "internalType": "uint64"
        }
      ],
      "anonymous": false
    },
    {
      "type": "event",
      "name": "Paused",
      "inputs": [
        {
          "name": "account",
          "type": "address",
          "indexed": false,
          "internalType": "address"
        }
      ],
      "anonymous": false
    },
    {
      "type": "event",
      "name": "RoleAdminChanged",
      "inputs": [
        {
          "name": "role",
          "type": "bytes32",
          "indexed": true,
          "internalType": "bytes32"
        },
        {
          "name": "previousAdminRole",
          "type": "bytes32",
          "indexed": true,
          "internalType": "bytes32"
        },
        {
          "name": "newAdminRole",
          "type": "bytes32",
          "indexed": true,
          "internalType": "bytes32"
        }
      ],
      "anonymous": false
    },
    {
      "type": "event",
      "name": "RoleGranted",
      "inputs": [
        {
          "name": "role",
          "type": "bytes32",
          "indexed": true,
          "internalType": "bytes32"
        },
        {
          "name": "account",
          "type": "address",
          "indexed": true,
          "internalType": "address"
        },
        {
          "name": "sender",
          "type": "address",
          "indexed": true,
          "internalType": "address"
        }
      ],
      "anonymous": false
    },
    {
      "type": "event",
      "name": "RoleRevoked",
      "inputs": [
        {
          "name": "role",
          "type": "bytes32",
          "indexed": true,
          "internalType": "bytes32"
        },
        {
          "name": "account",
          "type": "address",
          "indexed": true,
          "internalType": "address"
        },
        {
          "name": "sender",
          "type": "address",
          "indexed": true,
          "internalType": "address"
        }
      ],
      "anonymous": false
    },
    {
      "type": "event",
      "name": "Unpaused",
      "inputs": [
        {
          "name": "account",
          "type": "address",
          "indexed": false,
          "internalType": "address"
        }
      ],
      "anonymous": false
    },
    {
      "type": "error",
      "name": "AccessControlBadConfirmation",
      "inputs": []
    },
    {
      "type": "error",
      "name": "AccessControlUnauthorizedAccount",
      "inputs": [
        {
          "name": "account",
          "type": "address",
          "internalType": "address"
        },
        {
          "name": "neededRole",
          "type": "bytes32",
          "internalType": "bytes32"
        }
      ]
    },
    {
      "type": "error",
      "name": "EnforcedPause",
      "inputs": []
    },
    {
      "type": "error",
      "name": "ExpectedPause",
      "inputs": []
    },
    {
      "type": "error",
      "name": "InvalidInitialization",
      "inputs": []
    },
    {
      "type": "error",
      "name": "NotInitializing",
      "inputs": []
    },
    {
      "type": "error",
      "name": "ReentrancyGuardReentrantCall",
      "inputs": []
    },
    {
      "type": "error",
      "name": "SafeERC20FailedOperation",
      "inputs": [
        {
          "name": "token",
          "type": "address",
          "internalType": "address"
        }
      ]
    }
  ],
  "bytecode": {
    "object": "0x6080604052348015600f57600080fd5b506016601a565b60ca565b7ff0c57e16840df040f15088dc2f81fe391c3923bec73e23a9662efc9c229c6a00805468010000000000000000900460ff161560695760405163f92ee8a960e01b815260040160405180910390fd5b80546001600160401b039081161460c75780546001600160401b0319166001600160401b0390811782556040519081527fc7f505b2f371ae2175ee4913f4499e1f2633a7b5936321eed1cdaeb6115181d29060200160405180910390a15b50565b612c38806100d96000396000f3fe60806040526004361061023b5760003560e01c80635f3693ad1161012e578063a4821719116100ab578063c4d66de81161006f578063c4d66de814610710578063cf47bfa014610730578063d547741f14610750578063d7056c2014610770578063ebbc56ff1461079257600080fd5b8063a482171914610661578063a4b2119014610669578063b32c367714610689578063bd1f4b52146106d0578063c3490263146106f057600080fd5b806391d14854116100f257806391d14854146105bf57806392b0b7ee146105df578063998f6ac01461060c5780639eb9d8b91461062c578063a217fddf1461064c57600080fd5b80635f3693ad146105375780637487f528146105575780638456cb591461057757806389391c401461058c5780638f5113601461059f57600080fd5b806326232a2e116101bc5780633f4ba83a116101805780633f4ba83a1461047857806344c62ca61461048d578063451c3d80146104ad57806353989d7b146104e55780635c975abb1461051257600080fd5b806326232a2e146103f75780632f2ff15d1461040d57806336568abe1461042d57806337e232221461044d5780633ccfd60b1461046357600080fd5b806319acb5131161020357806319acb5131461030b5780631c3e6ee6146103605780631cfdd601146103765780631d645b12146103aa578063248a9ca3146103d757600080fd5b806301ffc9a7146102405780630b359fb1146102755780630b7914301461029557806312e8e2c3146102c9578063134ce466146102eb575b600080fd5b34801561024c57600080fd5b5061026061025b36600461241d565b6107c7565b60405190151581526020015b60405180910390f35b34801561028157600080fd5b5061026061029036600461244e565b6107fe565b3480156102a157600080fd5b506102b56102b036600461244e565b6109e0565b60405161026c9897969594939291906124ad565b3480156102d557600080fd5b506102e96102e436600461244e565b610abe565b005b3480156102f757600080fd5b506102e961030636600461251d565b610b10565b34801561031757600080fd5b50610352610326366004612538565b600460209081526000948552604080862082529385528385208152918452828420909152825290205481565b60405190815260200161026c565b34801561036c57600080fd5b5061035260005481565b34801561038257600080fd5b506103527f40f542d5ab793c69bab1459e38d9a48948539eac7137c4e42b2abc10374ef6c181565b3480156103b657600080fd5b506103ca6103c536600461244e565b610b4a565b60405161026c9190612584565b3480156103e357600080fd5b506103526103f236600461244e565b610cba565b34801561040357600080fd5b5061035260035481565b34801561041957600080fd5b506102e9610428366004612608565b610cdc565b34801561043957600080fd5b506102e9610448366004612608565b610cfe565b34801561045957600080fd5b5061035260015481565b34801561046f57600080fd5b506102e9610d31565b34801561048457600080fd5b506102e9610d6c565b34801561049957600080fd5b506103526104a8366004612645565b610d82565b3480156104b957600080fd5b506002546104cd906001600160a01b031681565b6040516001600160a01b03909116815260200161026c565b3480156104f157600080fd5b5061050561050036600461268b565b610dfa565b60405161026c91906126bc565b34801561051e57600080fd5b50600080516020612bc38339815191525460ff16610260565b34801561054357600080fd5b50610352610552366004612645565b610e5a565b34801561056357600080fd5b506102e961057236600461251d565b610ea6565b34801561058357600080fd5b506102e9610ed4565b61026061059a3660046126d6565b610ee7565b3480156105ab57600080fd5b506102e96105ba36600461251d565b61124d565b3480156105cb57600080fd5b506102606105da366004612608565b611270565b3480156105eb57600080fd5b506105ff6105fa36600461268b565b6112a8565b60405161026c9190612713565b34801561061857600080fd5b5061035261062736600461244e565b611308565b34801561063857600080fd5b506102e9610647366004612727565b611329565b34801561065857600080fd5b50610352600081565b610260611549565b34801561067557600080fd5b506102e96106843660046127a5565b61169d565b34801561069557600080fd5b506103526106a4366004612538565b600560209081526000948552604080862082529385528385208152918452828420909152825290205481565b3480156106dc57600080fd5b506102e96106eb3660046127f8565b6117bf565b3480156106fc57600080fd5b506102e961070b366004612822565b61185b565b34801561071c57600080fd5b506102e961072b36600461251d565b611b1c565b34801561073c57600080fd5b5061035261074b366004612844565b611c28565b34801561075c57600080fd5b506102e961076b366004612608565b611e77565b34801561077c57600080fd5b50610352600080516020612b8383398151915281565b34801561079e57600080fd5b506107b26107ad3660046128ac565b611e93565b6040805192835260208301919091520161026c565b60006001600160e01b03198216637965db0b60e01b14806107f857506301ffc9a760e01b6001600160e01b03198316145b92915050565b6000610808611eaf565b6000821161085d5760405162461bcd60e51b815260206004820152601d60248201527f416d6f756e74206d7573742062652067726561746572207468616e203000000060448201526064015b60405180910390fd5b600061086a6064846128f6565b6002546040516370a0823160e01b815233600482015291925084916001600160a01b03909116906370a0823190602401602060405180830381865afa1580156108b7573d6000803e3d6000fd5b505050506040513d601f19601f820116820180604052508101906108db9190612918565b10156109295760405162461bcd60e51b815260206004820152601860248201527f496e73756666696369656e74204d6f6e2062616c616e636500000000000000006044820152606401610854565b804710156109795760405162461bcd60e51b815260206004820152601c60248201527f496e73756666696369656e742045544820696e20636f6e7472616374000000006044820152606401610854565b600254610991906001600160a01b0316333086611ee7565b604051339082156108fc029083906000818181858888f193505050501580156109be573d6000803e3d6000fd5b5060019150506109db6001600080516020612be383398151915255565b919050565b600660205260009081526040902080546001820154600283015460038401546004850180549495939492939192610a1690612931565b80601f0160208091040260200160405190810160405280929190818152602001828054610a4290612931565b8015610a8f5780601f10610a6457610100808354040283529160200191610a8f565b820191906000526020600020905b815481529060010190602001808311610a7257829003601f168201915b505050600590930154919250506001600160a01b0381169060ff600160a01b8204811691600160a81b90041688565b6000610ac981611f4e565b6103e8821115610b0a5760405162461bcd60e51b815260206004820152600c60248201526b08ccaca40e8dede40d0d2ced60a31b6044820152606401610854565b50600355565b6000610b1b81611f4e565b610b457f40f542d5ab793c69bab1459e38d9a48948539eac7137c4e42b2abc10374ef6c183611f58565b505050565b610ba0604051806101000160405280600081526020016000815260200160008152602001600081526020016060815260200160006001600160a01b03168152602001600015158152602001600060ff1681525090565b600060066000848152602001908152602001600020905060405180610100016040528082600001548152602001826001015481526020018260020154815260200182600301548152602001826004018054610bfa90612931565b80601f0160208091040260200160405190810160405280929190818152602001828054610c2690612931565b8015610c735780601f10610c4857610100808354040283529160200191610c73565b820191906000526020600020905b815481529060010190602001808311610c5657829003601f168201915b50505091835250506005909201546001600160a01b038116602084015260ff600160a01b8204811615156040850152600160a81b9091041660609092019190915292915050565b6000908152600080516020612ba3833981519152602052604090206001015490565b610ce582610cba565b610cee81611f4e565b610cf88383611f58565b50505050565b6001600160a01b0381163314610d275760405163334bd91960e11b815260040160405180910390fd5b610b458282611ffd565b6000610d3c81611f4e565b60405133904780156108fc02916000818181858888f19350505050158015610d68573d6000803e3d6000fd5b5050565b6000610d7781611f4e565b610d7f612079565b50565b600080610d8e836112a8565b6001600160a01b03851660009081526005602090815260408083208a845282528083208984529091528120919250826001811115610dce57610dce6126a6565b6001811115610ddf57610ddf6126a6565b8152602001908152602001600020549150505b949350505050565b6000600260ff83161115610e455760405162461bcd60e51b8152602060048201526012602482015271496e76616c696420656e756d2076616c756560701b6044820152606401610854565b8160ff1660028111156107f8576107f86126a6565b600080610e66836112a8565b6001600160a01b03851660009081526004602090815260408083208a845282528083208984529091528120919250826001811115610dce57610dce6126a6565b6000610eb181611f4e565b50600280546001600160a01b0319166001600160a01b0392909216919091179055565b6000610edf81611f4e565b610d7f6120d9565b6000610ef1611eaf565b60008581526006602052604081208054909103610f425760405162461bcd60e51b815260206004820152600f60248201526e115d995b9d081b9bdd08199bdd5b99608a1b6044820152606401610854565b8060010154421015610f8a5760405162461bcd60e51b8152602060048201526011602482015270115d995b9d081b9bdd081cdd185c9d1959607a1b6044820152606401610854565b80600201544210610fcb5760405162461bcd60e51b815260206004820152600b60248201526a115d995b9d08195b99195960aa1b6044820152606401610854565b60008581526006820160205260409020600781015460ff16156110245760405162461bcd60e51b815260206004820152601160248201527010dbdb991a5d1a5bdb881cd95d1d1b1959607a1b6044820152606401610854565b600061102f866112a8565b9050600061103f8989888a612122565b6002549092506001600160a01b0316905061105c81333085611ee7565b86846001016000856001811115611075576110756126a6565b6001811115611086576110866126a6565b815260200190815260200160002060008282546110a3919061296b565b909155508290506002850160008560018111156110c2576110c26126a6565b60018111156110d3576110d36126a6565b815260200190815260200160002060008282546110f0919061296b565b90915550503360009081526004602090815260408083208d845282528083208c84529091528120889185600181111561112b5761112b6126a6565b600181111561113c5761113c6126a6565b81526020019081526020016000206000828254611159919061296b565b90915550503360009081526005602090815260408083208d845282528083208c845290915281208391856001811115611194576111946126a6565b60018111156111a5576111a56126a6565b815260200190815260200160002060008282546111c2919061296b565b90915550506001546040805133815260ff8b166020820152908101899052606081018490528a918c917f9a6da61769a2458b243950af127ee61b8d56d713bb707951aa4df6dcd0c868bd9060800160405180910390a4600180549060006112288361297e565b9190505550600195505050505050610df26001600080516020612be383398151915255565b600061125881611f4e565b610b45600080516020612b8383398151915283611f58565b6000918252600080516020612ba3833981519152602090815260408084206001600160a01b0393909316845291905290205460ff1690565b6000600160ff831611156112f35760405162461bcd60e51b8152602060048201526012602482015271496e76616c696420656e756d2076616c756560701b6044820152606401610854565b8160ff1660018111156107f8576107f86126a6565b6007818154811061131857600080fd5b600091825260209091200154905081565b611331611eaf565b7f40f542d5ab793c69bab1459e38d9a48948539eac7137c4e42b2abc10374ef6c161135b81611f4e565b600084815260066020818152604080842087855290920190529020600781015460ff16156113bd5760405162461bcd60e51b815260206004820152600f60248201526e105b1c9958591e481cd95d1d1b1959608a1b6044820152606401610854565b60078101805460ff1960ff8616610100021661ffff19909116176001179055600060078201546113f490610100900460ff166112a8565b6001811115611405576114056126a6565b0361146a57600354600160009081526002830160205260408120549091612710916114309190612997565b61143a91906128f6565b6001600090815260028401602052604090205490915061145b9082906129ae565b600483015560058201556114c2565b600354600080805260028301602052604081205490916127109161148e9190612997565b61149891906128f6565b60008080526002840160205260409020549091506114b79082906129ae565b600483015560058201555b600180549060006114d28361297e565b9091555050600154600482015460058301546040805160ff881681526020810193909352820152336060820152859187917f39514260eea240ff65fbce541865715f1a263dd719c98399c411547de759235f9060800160405180910390a45050610b456001600080516020612be383398151915255565b6000611553611eaf565b6000341161159b5760405162461bcd60e51b8152602060048201526015602482015274125b9cdd59999a58da595b9d08115512081cd95b9d605a1b6044820152606401610854565b60006115a8346064612997565b6002546040516370a0823160e01b815230600482015291925082916001600160a01b03909116906370a0823190602401602060405180830381865afa1580156115f5573d6000803e3d6000fd5b505050506040513d601f19601f820116820180604052508101906116199190612918565b10156116675760405162461bcd60e51b815260206004820152601d60248201527f496e73756666696369656e74205553444f20696e20636f6e74726163740000006044820152606401610854565b60025461167e906001600160a01b0316338361224f565b600191505061169a6001600080516020612be383398151915255565b90565b6116a5611eaf565b600080516020612b838339815191526116bd81611f4e565b6000858152600660205260408120805490910361170e5760405162461bcd60e51b815260206004820152600f60248201526e115d995b9d081b9bdd08199bdd5b99608a1b6044820152606401610854565b600081600301600081546117219061297e565b91829055506000818152600684016020526040902090915080611745868883612a1f565b5086816006018190555081886001547fa3b9094ca5feee9b5073423a4e760a057a7080d3327905cb6f06373d89d7509e8a8a8a60405161178793929190612b09565b60405180910390a46001805490600061179f8361297e565b919050555050505050610cf86001600080516020612be383398151915255565b60006117ca81611f4e565b6117d2611eaf565b60405163a9059cbb60e01b8152336004820152602481018390526001600160a01b0384169063a9059cbb906044016020604051808303816000875af115801561181f573d6000803e3d6000fd5b505050506040513d601f19601f820116820180604052508101906118439190612b2c565b50610b456001600080516020612be383398151915255565b600082815260066020818152604080842085855290920190529020600781015460ff166118bb5760405162461bcd60e51b815260206004820152600e60248201526d14995cdd5b1d081b9bdd081cd95d60921b6044820152606401610854565b33600090815260038201602052604090205460ff161561190f5760405162461bcd60e51b815260206004820152600f60248201526e105b1c9958591e4818db185a5b5959608a1b6044820152606401610854565b6000808052600182810160205260408083205491835282205460078401548392839290918390819061194890610100900460ff166112a8565b6001811115611959576119596126a6565b036119ba57503360008181526004602090815260408083208c845282528083208b84528252808320838052825280832054938352600582528083208c845282528083208b845282528083208380529091529020549094509192508291611a15565b503360008181526004602090815260408083208c845282528083208b84528252808320600180855290835281842054948452600583528184208d855283528184208c8552835281842090845290915290205490945090925082905b60008511611a585760405162461bcd60e51b815260206004820152601060248201526f4e6f2077696e6e696e67207374616b6560801b6044820152606401610854565b83858860040154611a699190612997565b611a7391906128f6565b33600081815260038a0160205260409020805460ff191660011790556002549197506001600160a01b039190911690611ac190611ab0898561296b565b6001600160a01b038416919061224f565b6001546040805133815260208101859052908101889052606081018990528a918c917f80121d7198fa687a09ff67718febecad4335c9dbad4bcf5c581b7c544660d9479060800160405180910390a450505050505050505050565b6000611b26612280565b805490915060ff600160401b820416159067ffffffffffffffff16600081158015611b4e5750825b905060008267ffffffffffffffff166001148015611b6b5750303b155b905081158015611b79575080155b15611b975760405163f92ee8a960e01b815260040160405180910390fd5b845467ffffffffffffffff191660011785558315611bc157845460ff60401b1916600160401b1785555b611bc96122a9565b611bd16122a9565b611bda866122b3565b8315611c2057845460ff60401b19168555604051600181527fc7f505b2f371ae2175ee4913f4499e1f2633a7b5936321eed1cdaeb6115181d29060200160405180910390a15b505050505050565b6000600080516020612b83833981519152611c4281611f4e565b611c4a611eaf565b428611611c995760405162461bcd60e51b815260206004820181905260248201527f53746172742074696d65206d75737420626520696e20746865206675747572656044820152606401610854565b428511611ce85760405162461bcd60e51b815260206004820152601e60248201527f456e642074696d65206d75737420626520696e207468652066757475726500006044820152606401610854565b858511611d465760405162461bcd60e51b815260206004820152602660248201527f456e642074696d65206d757374206265206c61746572207468616e2073746172604482015265742074696d6560d01b6064820152608401610854565b600080548180611d558361297e565b90915550600081815260066020526040902081815560058101805460ff60a81b1916600160a81b60ff8d1602179055600181018990556002810188905590915060048101611da4868883612a1f565b50338160050160006101000a8154816001600160a01b0302191690836001600160a01b031602179055506007829080600181540180825580915050600190039060005260206000200160009091909190915055336001600160a01b0316826001547f0cbbb77c8672e9c7b779b0931d3b9688971d4ffea1382b8f81bdfc137fe3f4088b8b8e8c8c604051611e3c959493929190612b4e565b60405180910390a460018054906000611e548361297e565b90915550506001600080516020612be38339815191525550979650505050505050565b611e8082610cba565b611e8981611f4e565b610cf88383611ffd565b600080611ea286868686612122565b9097909650945050505050565b600080516020612be3833981519152805460011901611ee157604051633ee5aeb560e01b815260040160405180910390fd5b60029055565b6040516001600160a01b038481166024830152838116604483015260648201839052610cf89186918216906323b872dd906084015b604051602081830303815290604052915060e01b6020820180516001600160e01b0383818316178352505050506122d3565b610d7f8133612344565b6000600080516020612ba3833981519152611f738484611270565b611ff3576000848152602082815260408083206001600160a01b03871684529091529020805460ff19166001179055611fa93390565b6001600160a01b0316836001600160a01b0316857f2f8788117e7eff1d82e926ec794901d17c78024a50270940304540a733656f0d60405160405180910390a460019150506107f8565b60009150506107f8565b6000600080516020612ba38339815191526120188484611270565b15611ff3576000848152602082815260408083206001600160a01b0387168085529252808320805460ff1916905551339287917ff6391f5c32d9c69d2a47ea670b442974b53935d1edc7fd64eb21e047a839171b9190a460019150506107f8565b61208161237d565b600080516020612bc3833981519152805460ff191681557f5db9ee0a495bf2e6ff9c91a7834c1ba4fdd244a5e8aa4e537bd38aeae4b073aa335b6040516001600160a01b03909116815260200160405180910390a150565b6120e16123ad565b600080516020612bc3833981519152805460ff191660011781557f62e78cea01bee320cd4e420270b5ea74000d11b0c9f74754ebdbfc544b05a258336120bb565b60008481526006602081815260408084208785529092018152818320838052600180820190925282842054918452918320548392919083612163828461296b565b6006850154909150600082900361218d579550856121818982612997565b95505050505050612246565b6000612198896112a8565b905060008160018111156121ae576121ae6126a6565b036121f557836121be8b8761296b565b6121c8919061296b565b6121d28b8761296b565b6121e490670de0b6b3a7640000612997565b6121ee91906128f6565b9750612233565b89612200858761296b565b61220a919061296b565b6122148b8661296b565b61222690670de0b6b3a7640000612997565b61223091906128f6565b97505b61223d8a89612997565b96505050505050505b94509492505050565b6040516001600160a01b03838116602483015260448201839052610b4591859182169063a9059cbb90606401611f1c565b6000807ff0c57e16840df040f15088dc2f81fe391c3923bec73e23a9662efc9c229c6a006107f8565b6122b16123de565b565b6122bb6123de565b6122c6600082611f58565b5050600160008190558055565b600080602060008451602086016000885af1806122f6576040513d6000823e3d81fd5b50506000513d9150811561230e57806001141561231b565b6001600160a01b0384163b155b15610cf857604051635274afe760e01b81526001600160a01b0385166004820152602401610854565b61234e8282611270565b610d685760405163e2517d3f60e01b81526001600160a01b038216600482015260248101839052604401610854565b600080516020612bc38339815191525460ff166122b157604051638dfc202b60e01b815260040160405180910390fd5b600080516020612bc38339815191525460ff16156122b15760405163d93c066560e01b815260040160405180910390fd5b6123e6612403565b6122b157604051631afcd79f60e31b815260040160405180910390fd5b600061240d612280565b54600160401b900460ff16919050565b60006020828403121561242f57600080fd5b81356001600160e01b03198116811461244757600080fd5b9392505050565b60006020828403121561246057600080fd5b5035919050565b6000815180845260005b8181101561248d57602081850181015186830182015201612471565b506000602082860101526020601f19601f83011685010191505092915050565b60006101008a83528960208401528860408401528760608401528060808401526124d981840188612467565b6001600160a01b039690961660a0840152505091151560c083015260ff1660e09091015295945050505050565b80356001600160a01b03811681146109db57600080fd5b60006020828403121561252f57600080fd5b61244782612506565b6000806000806080858703121561254e57600080fd5b61255785612506565b9350602085013592506040850135915060608501356002811061257957600080fd5b939692955090935050565b6020815281516020820152602082015160408201526040820151606082015260608201516080820152600060808301516101008060a08501526125cb610120850183612467565b915060018060a01b0360a08601511660c085015260c0850151151560e085015260e08501516125fe8286018260ff169052565b5090949350505050565b6000806040838503121561261b57600080fd5b8235915061262b60208401612506565b90509250929050565b803560ff811681146109db57600080fd5b6000806000806080858703121561265b57600080fd5b843593506020850135925061267260408601612506565b915061268060608601612634565b905092959194509250565b60006020828403121561269d57600080fd5b61244782612634565b634e487b7160e01b600052602160045260246000fd5b60208101600383106126d0576126d06126a6565b91905290565b600080600080608085870312156126ec57600080fd5b843593506020850135925061270360408601612634565b9396929550929360600135925050565b60208101600283106126d0576126d06126a6565b60008060006060848603121561273c57600080fd5b833592506020840135915061275360408501612634565b90509250925092565b60008083601f84011261276e57600080fd5b50813567ffffffffffffffff81111561278657600080fd5b60208301915083602082850101111561279e57600080fd5b9250929050565b600080600080606085870312156127bb57600080fd5b8435935060208501359250604085013567ffffffffffffffff8111156127e057600080fd5b6127ec8782880161275c565b95989497509550505050565b6000806040838503121561280b57600080fd5b61281483612506565b946020939093013593505050565b6000806040838503121561283557600080fd5b50508035926020909101359150565b60008060008060006080868803121561285c57600080fd5b61286586612634565b94506020860135935060408601359250606086013567ffffffffffffffff81111561288f57600080fd5b61289b8882890161275c565b969995985093965092949392505050565b600080600080608085870312156128c257600080fd5b84359350602085013592506040850135915061268060608601612634565b634e487b7160e01b600052601160045260246000fd5b60008261291357634e487b7160e01b600052601260045260246000fd5b500490565b60006020828403121561292a57600080fd5b5051919050565b600181811c9082168061294557607f821691505b60208210810361296557634e487b7160e01b600052602260045260246000fd5b50919050565b808201808211156107f8576107f86128e0565b600060018201612990576129906128e0565b5060010190565b80820281158282048414176107f8576107f86128e0565b818103818111156107f8576107f86128e0565b634e487b7160e01b600052604160045260246000fd5b601f821115610b45576000816000526020600020601f850160051c81016020861015612a005750805b601f850160051c820191505b81811015611c2057828155600101612a0c565b67ffffffffffffffff831115612a3757612a376129c1565b612a4b83612a458354612931565b836129d7565b6000601f841160018114612a7f5760008515612a675750838201355b600019600387901b1c1916600186901b178355612ad9565b600083815260209020601f19861690835b82811015612ab05786850135825560209485019460019092019101612a90565b5086821015612acd5760001960f88860031b161c19848701351681555b505060018560011b0183555b5050505050565b81835281816020850137506000828201602090810191909152601f909101601f19169091010190565b838152604060208201526000612b23604083018486612ae0565b95945050505050565b600060208284031215612b3e57600080fd5b8151801515811461244757600080fd5b85815284602082015260ff84166040820152608060608201526000612b77608083018486612ae0565b97965050505050505056fe7263713b378e463b1abfeab89a5672633e678c6915a90afe819fcbb4e75efb4302dd7bc7dec4dceedda775e58dd541e08a116c6c53815c0bd028192f7b626800cd5ed15c6e187e77e9aee88184c21f4f2182ab5827cb3b7e07fbedcd63f033009b779b17422d0df92223018b32b4d1fa46e071723d6817e2486d003becc55f00a264697066735822122035be39e2a1ff492ca913435cd7ccfd6c70c91459da357124d9c94c98a489e20e64736f6c63430008190033",
    "linkReferences": {}
  },
  "methodIdentifiers": {
    "DEFAULT_ADMIN_ROLE()": "a217fddf",
    "EVENT_EMITTER_ROLE()": "d7056c20",
    "EVENT_SETTLER_ROLE()": "1cfdd601",
    "acceptedToken()": "451c3d80",
    "addCondition(uint256,uint256,string)": "a4b21190",
    "addEventEmitter(address)": "8f511360",
    "addEventSettler(address)": "134ce466",
    "bet(uint256,uint256,uint8,uint256)": "89391c40",
    "buyToken()": "a4821719",
    "claim(uint256,uint256)": "c3490263",
    "claimMon(uint256)": "0b359fb1",
    "eventIds(uint256)": "998f6ac0",
    "eventNonce()": "1c3e6ee6",
    "events(uint256)": "0b791430",
    "getEstimatedPrice(uint256,uint256,uint256,uint8)": "ebbc56ff",
    "getEventInfo(uint256)": "1d645b12",
    "getRoleAdmin(bytes32)": "248a9ca3",
    "getUserBet(uint256,uint256,address,uint8)": "5f3693ad",
    "getUserPaid(uint256,uint256,address,uint8)": "44c62ca6",
    "globalNonce()": "37e23222",
    "grantRole(bytes32,address)": "2f2ff15d",
    "hasRole(bytes32,address)": "91d14854",
    "initialize(address)": "c4d66de8",
    "pause()": "8456cb59",
    "paused()": "5c975abb",
    "platformFee()": "26232a2e",
    "renounceRole(bytes32,address)": "36568abe",
    "revokeRole(bytes32,address)": "d547741f",
    "sendGuessEvent(uint8,uint256,uint256,string)": "cf47bfa0",
    "setAcceptedToken(address)": "7487f528",
    "setPlatformFee(uint256)": "12e8e2c3",
    "settleCondition(uint256,uint256,uint8)": "9eb9d8b9",
    "supportsInterface(bytes4)": "01ffc9a7",
    "uintToEnum(uint8)": "53989d7b",
    "uintToOption(uint8)": "92b0b7ee",
    "unpause()": "3f4ba83a",
    "userBets(address,uint256,uint256,uint8)": "19acb513",
    "userPaid(address,uint256,uint256,uint8)": "b32c3677",
    "withdraw()": "3ccfd60b",
    "withdrawErc20(address,uint256)": "bd1f4b52"
  },
  "id": 48
}