{"abi":[{"type":"constructor","inputs":[],"stateMutability":"nonpayable"},{"type":"function","name":"DEFAULT_ADMIN_ROLE","inputs":[],"outputs":[{"name":"","type":"bytes32","internalType":"bytes32"}],"stateMutability":"view"},{"type":"function","name":"EVENT_EMITTER_ROLE","inputs":[],"outputs":[{"name":"","type":"bytes32","internalType":"bytes32"}],"stateMutability":"view"},{"type":"function","name":"EVENT_SETTLER_ROLE","inputs":[],"outputs":[{"name":"","type":"bytes32","internalType":"bytes32"}],"stateMutability":"view"},{"type":"function","name":"acceptedToken","inputs":[],"outputs":[{"name":"","type":"address","internalType":"contract IERC20"}],"stateMutability":"view"},{"type":"function","name":"addCondition","inputs":[{"name":"eventId","type":"uint256","internalType":"uint256"},{"name":"price","type":"uint256","internalType":"uint256"},{"name":"conditionDesc","type":"string","internalType":"string"}],"outputs":[],"stateMutability":"nonpayable"},{"type":"function","name":"addEventEmitter","inputs":[{"name":"account","type":"address","internalType":"address"}],"outputs":[],"stateMutability":"nonpayable"},{"type":"function","name":"addEventSettler","inputs":[{"name":"account","type":"address","internalType":"address"}],"outputs":[],"stateMutability":"nonpayable"},{"type":"function","name":"bet","inputs":[{"name":"eventId","type":"uint256","internalType":"uint256"},{"name":"conditionId","type":"uint256","internalType":"uint256"},{"name":"optionUint","type":"uint8","internalType":"uint8"},{"name":"amount","type":"uint256","internalType":"uint256"}],"outputs":[{"name":"","type":"bool","internalType":"bool"}],"stateMutability":"payable"},{"type":"function","name":"buyToken","inputs":[],"outputs":[{"name":"","type":"bool","internalType":"bool"}],"stateMutability":"payable"},{"type":"function","name":"claim","inputs":[{"name":"eventId","type":"uint256","internalType":"uint256"},{"name":"conditionId","type":"uint256","internalType":"uint256"}],"outputs":[],"stateMutability":"nonpayable"},{"type":"function","name":"claimMon","inputs":[{"name":"amount","type":"uint256","internalType":"uint256"}],"outputs":[{"name":"","type":"bool","internalType":"bool"}],"stateMutability":"nonpayable"},{"type":"function","name":"eventIds","inputs":[{"name":"","type":"uint256","internalType":"uint256"}],"outputs":[{"name":"","type":"uint256","internalType":"uint256"}],"stateMutability":"view"},{"type":"function","name":"eventNonce","inputs":[],"outputs":[{"name":"","type":"uint256","internalType":"uint256"}],"stateMutability":"view"},{"type":"function","name":"events","inputs":[{"name":"","type":"uint256","internalType":"uint256"}],"outputs":[{"name":"id","type":"uint256","internalType":"uint256"},{"name":"startTime","type":"uint256","internalType":"uint256"},{"name":"endTime","type":"uint256","internalType":"uint256"},{"name":"conditionCount","type":"uint256","internalType":"uint256"},{"name":"topic","type":"string","internalType":"string"},{"name":"creator","type":"address","internalType":"address"},{"name":"settled","type":"bool","internalType":"bool"},{"name":"eventType","type":"uint8","internalType":"uint8"}],"stateMutability":"view"},{"type":"function","name":"getConditionInfo","inputs":[{"name":"eventId","type":"uint256","internalType":"uint256"},{"name":"conditionId","type":"uint256","internalType":"uint256"}],"outputs":[{"name":"","type":"tuple","internalType":"struct GuessTokenBase.ConditionInfo","components":[{"name":"description","type":"string","internalType":"string"},{"name":"price","type":"uint256","internalType":"uint256"},{"name":"totalReward","type":"uint256","internalType":"uint256"},{"name":"thisTimeProtocolFee","type":"uint256","internalType":"uint256"},{"name":"settled","type":"bool","internalType":"bool"},{"name":"result","type":"uint8","internalType":"uint8"},{"name":"totalYesBets","type":"uint256","internalType":"uint256"},{"name":"totalNoBets","type":"uint256","internalType":"uint256"},{"name":"totalYesPaid","type":"uint256","internalType":"uint256"},{"name":"totalNoPaid","type":"uint256","internalType":"uint256"}]}],"stateMutability":"view"},{"type":"function","name":"getEstimatedPrice","inputs":[{"name":"eventId","type":"uint256","internalType":"uint256"},{"name":"conditionId","type":"uint256","internalType":"uint256"},{"name":"amount","type":"uint256","internalType":"uint256"},{"name":"optionUint","type":"uint8","internalType":"uint8"}],"outputs":[{"name":"price","type":"uint256","internalType":"uint256"},{"name":"cost","type":"uint256","internalType":"uint256"}],"stateMutability":"view"},{"type":"function","name":"getEventInfo","inputs":[{"name":"eventId","type":"uint256","internalType":"uint256"}],"outputs":[{"name":"","type":"tuple","internalType":"struct GuessTokenBase.GuessEventInfo","components":[{"name":"id","type":"uint256","internalType":"uint256"},{"name":"startTime","type":"uint256","internalType":"uint256"},{"name":"endTime","type":"uint256","internalType":"uint256"},{"name":"conditionCount","type":"uint256","internalType":"uint256"},{"name":"topic","type":"string","internalType":"string"},{"name":"creator","type":"address","internalType":"address"},{"name":"settled","type":"bool","internalType":"bool"},{"name":"eventType","type":"uint8","internalType":"uint8"}]}],"stateMutability":"view"},{"type":"function","name":"getRoleAdmin","inputs":[{"name":"role","type":"bytes32","internalType":"bytes32"}],"outputs":[{"name":"","type":"bytes32","internalType":"bytes32"}],"stateMutability":"view"},{"type":"function","name":"getUserBet","inputs":[{"name":"eventId","type":"uint256","internalType":"uint256"},{"name":"conditionId","type":"uint256","internalType":"uint256"},{"name":"user","type":"address","internalType":"address"},{"name":"optionUint","type":"uint8","internalType":"uint8"}],"outputs":[{"name":"","type":"uint256","internalType":"uint256"}],"stateMutability":"view"},{"type":"function","name":"getUserPaid","inputs":[{"name":"eventId","type":"uint256","internalType":"uint256"},{"name":"conditionId","type":"uint256","internalType":"uint256"},{"name":"user","type":"address","internalType":"address"},{"name":"optionUint","type":"uint8","internalType":"uint8"}],"outputs":[{"name":"","type":"uint256","internalType":"uint256"}],"stateMutability":"view"},{"type":"function","name":"globalNonce","inputs":[],"outputs":[{"name":"","type":"uint256","internalType":"uint256"}],"stateMutability":"view"},{"type":"function","name":"grantRole","inputs":[{"name":"role","type":"bytes32","internalType":"bytes32"},{"name":"account","type":"address","internalType":"address"}],"outputs":[],"stateMutability":"nonpayable"},{"type":"function","name":"hasRole","inputs":[{"name":"role","type":"bytes32","internalType":"bytes32"},{"name":"account","type":"address","internalType":"address"}],"outputs":[{"name":"","type":"bool","internalType":"bool"}],"stateMutability":"view"},{"type":"function","name":"initialize","inputs":[{"name":"_MultisiteWallet","type":"address","internalType":"address"}],"outputs":[],"stateMutability":"nonpayable"},{"type":"function","name":"pause","inputs":[],"outputs":[],"stateMutability":"nonpayable"},{"type":"function","name":"paused","inputs":[],"outputs":[{"name":"","type":"bool","internalType":"bool"}],"stateMutability":"view"},{"type":"function","name":"platformFee","inputs":[],"outputs":[{"name":"","type":"uint256","internalType":"uint256"}],"stateMutability":"view"},{"type":"function","name":"renounceRole","inputs":[{"name":"role","type":"bytes32","internalType":"bytes32"},{"name":"callerConfirmation","type":"address","internalType":"address"}],"outputs":[],"stateMutability":"nonpayable"},{"type":"function","name":"revokeRole","inputs":[{"name":"role","type":"bytes32","internalType":"bytes32"},{"name":"account","type":"address","internalType":"address"}],"outputs":[],"stateMutability":"nonpayable"},{"type":"function","name":"sendGuessEvent","inputs":[{"name":"eventType","type":"uint8","internalType":"uint8"},{"name":"startTime","type":"uint256","internalType":"uint256"},{"name":"endTime","type":"uint256","internalType":"uint256"},{"name":"topic","type":"string","internalType":"string"}],"outputs":[{"name":"","type":"uint256","internalType":"uint256"}],"stateMutability":"nonpayable"},{"type":"function","name":"setAcceptedToken","inputs":[{"name":"token","type":"address","internalType":"address"}],"outputs":[],"stateMutability":"nonpayable"},{"type":"function","name":"setPlatformFee","inputs":[{"name":"fee","type":"uint256","internalType":"uint256"}],"outputs":[],"stateMutability":"nonpayable"},{"type":"function","name":"settleCondition","inputs":[{"name":"eventId","type":"uint256","internalType":"uint256"},{"name":"conditionId","type":"uint256","internalType":"uint256"},{"name":"result","type":"uint8","internalType":"uint8"}],"outputs":[],"stateMutability":"nonpayable"},{"type":"function","name":"supportsInterface","inputs":[{"name":"interfaceId","type":"bytes4","internalType":"bytes4"}],"outputs":[{"name":"","type":"bool","internalType":"bool"}],"stateMutability":"view"},{"type":"function","name":"uintToOption","inputs":[{"name":"value","type":"uint8","internalType":"uint8"}],"outputs":[{"name":"","type":"uint8","internalType":"enum GuessTokenBase.Option"}],"stateMutability":"pure"},{"type":"function","name":"unpause","inputs":[],"outputs":[],"stateMutability":"nonpayable"},{"type":"function","name":"userBets","inputs":[{"name":"","type":"address","internalType":"address"},{"name":"","type":"uint256","internalType":"uint256"},{"name":"","type":"uint256","internalType":"uint256"},{"name":"","type":"uint8","internalType":"enum GuessTokenBase.Option"}],"outputs":[{"name":"","type":"uint256","internalType":"uint256"}],"stateMutability":"view"},{"type":"function","name":"userPaid","inputs":[{"name":"","type":"address","internalType":"address"},{"name":"","type":"uint256","internalType":"uint256"},{"name":"","type":"uint256","internalType":"uint256"},{"name":"","type":"uint8","internalType":"enum GuessTokenBase.Option"}],"outputs":[{"name":"","type":"uint256","internalType":"uint256"}],"stateMutability":"view"},{"type":"function","name":"withdraw","inputs":[],"outputs":[],"stateMutability":"nonpayable"},{"type":"function","name":"withdrawErc20","inputs":[{"name":"token","type":"address","internalType":"address"},{"name":"amount","type":"uint256","internalType":"uint256"}],"outputs":[],"stateMutability":"nonpayable"},{"type":"event","name":"BetPlaced","inputs":[{"name":"globalNonce","type":"uint256","indexed":true,"internalType":"uint256"},{"name":"eventId","type":"uint256","indexed":true,"internalType":"uint256"},{"name":"conditionId","type":"uint256","indexed":true,"internalType":"uint256"},{"name":"user","type":"address","indexed":false,"internalType":"address"},{"name":"option","type":"uint8","indexed":false,"internalType":"uint8"},{"name":"amount","type":"uint256","indexed":false,"internalType":"uint256"},{"name":"useAmt","type":"uint256","indexed":false,"internalType":"uint256"}],"anonymous":false},{"type":"event","name":"ClaimReward","inputs":[{"name":"globalNonce","type":"uint256","indexed":true,"internalType":"uint256"},{"name":"eventId","type":"uint256","indexed":true,"internalType":"uint256"},{"name":"conditionId","type":"uint256","indexed":true,"internalType":"uint256"},{"name":"user","type":"address","indexed":false,"internalType":"address"},{"name":"userPaid","type":"uint256","indexed":false,"internalType":"uint256"},{"name":"userStake","type":"uint256","indexed":false,"internalType":"uint256"},{"name":"thisReward","type":"uint256","indexed":false,"internalType":"uint256"}],"anonymous":false},{"type":"event","name":"ConditionAdded","inputs":[{"name":"globalNonce","type":"uint256","indexed":true,"internalType":"uint256"},{"name":"eventId","type":"uint256","indexed":true,"internalType":"uint256"},{"name":"conditionId","type":"uint256","indexed":true,"internalType":"uint256"},{"name":"price","type":"uint256","indexed":false,"internalType":"uint256"},{"name":"description","type":"string","indexed":false,"internalType":"string"}],"anonymous":false},{"type":"event","name":"ConditionSettled","inputs":[{"name":"globalNonce","type":"uint256","indexed":true,"internalType":"uint256"},{"name":"eventId","type":"uint256","indexed":true,"internalType":"uint256"},{"name":"conditionId","type":"uint256","indexed":true,"internalType":"uint256"},{"name":"result","type":"uint8","indexed":false,"internalType":"uint8"},{"name":"totalReward","type":"uint256","indexed":false,"internalType":"uint256"},{"name":"thisTimeProtocolFee","type":"uint256","indexed":false,"internalType":"uint256"},{"name":"settler","type":"address","indexed":false,"internalType":"address"}],"anonymous":false},{"type":"event","name":"EventCreated","inputs":[{"name":"globalNonce","type":"uint256","indexed":true,"internalType":"uint256"},{"name":"eventId","type":"uint256","indexed":true,"internalType":"uint256"},{"name":"startTime","type":"uint256","indexed":false,"internalType":"uint256"},{"name":"endTime","type":"uint256","indexed":false,"internalType":"uint256"},{"name":"eventType","type":"uint8","indexed":false,"internalType":"uint8"},{"name":"topic","type":"string","indexed":false,"internalType":"string"},{"name":"creator","type":"address","indexed":true,"internalType":"address"}],"anonymous":false},{"type":"event","name":"Initialized","inputs":[{"name":"version","type":"uint64","indexed":false,"internalType":"uint64"}],"anonymous":false},{"type":"event","name":"Paused","inputs":[{"name":"account","type":"address","indexed":false,"internalType":"address"}],"anonymous":false},{"type":"event","name":"RoleAdminChanged","inputs":[{"name":"role","type":"bytes32","indexed":true,"internalType":"bytes32"},{"name":"previousAdminRole","type":"bytes32","indexed":true,"internalType":"bytes32"},{"name":"newAdminRole","type":"bytes32","indexed":true,"internalType":"bytes32"}],"anonymous":false},{"type":"event","name":"RoleGranted","inputs":[{"name":"role","type":"bytes32","indexed":true,"internalType":"bytes32"},{"name":"account","type":"address","indexed":true,"internalType":"address"},{"name":"sender","type":"address","indexed":true,"internalType":"address"}],"anonymous":false},{"type":"event","name":"RoleRevoked","inputs":[{"name":"role","type":"bytes32","indexed":true,"internalType":"bytes32"},{"name":"account","type":"address","indexed":true,"internalType":"address"},{"name":"sender","type":"address","indexed":true,"internalType":"address"}],"anonymous":false},{"type":"event","name":"Unpaused","inputs":[{"name":"account","type":"address","indexed":false,"internalType":"address"}],"anonymous":false},{"type":"error","name":"AccessControlBadConfirmation","inputs":[]},{"type":"error","name":"AccessControlUnauthorizedAccount","inputs":[{"name":"account","type":"address","internalType":"address"},{"name":"neededRole","type":"bytes32","internalType":"bytes32"}]},{"type":"error","name":"EnforcedPause","inputs":[]},{"type":"error","name":"ExpectedPause","inputs":[]},{"type":"error","name":"InvalidInitialization","inputs":[]},{"type":"error","name":"NotInitializing","inputs":[]},{"type":"error","name":"ReentrancyGuardReentrantCall","inputs":[]},{"type":"error","name":"SafeERC20FailedOperation","inputs":[{"name":"token","type":"address","internalType":"address"}]}],"bytecode":{"object":"0x6080604052348015600f57600080fd5b506016601a565b60ca565b7ff0c57e16840df040f15088dc2f81fe391c3923bec73e23a9662efc9c229c6a00805468010000000000000000900460ff161560695760405163f92ee8a960e01b815260040160405180910390fd5b80546001600160401b039081161460c75780546001600160401b0319166001600160401b0390811782556040519081527fc7f505b2f371ae2175ee4913f4499e1f2633a7b5936321eed1cdaeb6115181d29060200160405180910390a15b50565b612f38806100d96000396000f3fe60806040526004361061023b5760003560e01c80635f3693ad1161012e578063a4821719116100ab578063c4d66de81161006f578063c4d66de814610710578063cf47bfa014610730578063d547741f14610750578063d7056c2014610770578063ebbc56ff1461079257600080fd5b8063a482171914610661578063a4b2119014610669578063b32c367714610689578063bd1f4b52146106d0578063c3490263146106f057600080fd5b806391d14854116100f257806391d14854146105bf57806392b0b7ee146105df578063998f6ac01461060c5780639eb9d8b91461062c578063a217fddf1461064c57600080fd5b80635f3693ad146105375780637487f528146105575780638456cb591461057757806389391c401461058c5780638f5113601461059f57600080fd5b8063248a9ca3116101bc5780633ccfd60b116101805780633ccfd60b146104905780633f4ba83a146104a557806344c62ca6146104ba578063451c3d80146104da5780635c975abb1461051257600080fd5b8063248a9ca31461040457806326232a2e146104245780632f2ff15d1461043a57806336568abe1461045a57806337e232221461047a57600080fd5b8063134ce46611610203578063134ce4661461031857806319acb513146103385780631c3e6ee61461038d5780631cfdd601146103a35780631d645b12146103d757600080fd5b806301ffc9a7146102405780630b359fb1146102755780630b7914301461029557806311ef2cd2146102c957806312e8e2c3146102f6575b600080fd5b34801561024c57600080fd5b5061026061025b366004612647565b6107c7565b60405190151581526020015b60405180910390f35b34801561028157600080fd5b50610260610290366004612678565b6107fe565b3480156102a157600080fd5b506102b56102b0366004612678565b6109e0565b60405161026c9897969594939291906126d7565b3480156102d557600080fd5b506102e96102e4366004612730565b610abe565b60405161026c9190612752565b34801561030257600080fd5b50610316610311366004612678565b610ced565b005b34801561032457600080fd5b50610316610333366004612804565b610d3f565b34801561034457600080fd5b5061037f61035336600461281f565b600460209081526000948552604080862082529385528385208152918452828420909152825290205481565b60405190815260200161026c565b34801561039957600080fd5b5061037f60005481565b3480156103af57600080fd5b5061037f7f40f542d5ab793c69bab1459e38d9a48948539eac7137c4e42b2abc10374ef6c181565b3480156103e357600080fd5b506103f76103f2366004612678565b610d79565b60405161026c919061286b565b34801561041057600080fd5b5061037f61041f366004612678565b610ee9565b34801561043057600080fd5b5061037f60035481565b34801561044657600080fd5b506103166104553660046128ef565b610f0b565b34801561046657600080fd5b506103166104753660046128ef565b610f2d565b34801561048657600080fd5b5061037f60015481565b34801561049c57600080fd5b50610316610f60565b3480156104b157600080fd5b50610316610f9b565b3480156104c657600080fd5b5061037f6104d536600461292c565b610fb1565b3480156104e657600080fd5b506002546104fa906001600160a01b031681565b6040516001600160a01b03909116815260200161026c565b34801561051e57600080fd5b50600080516020612ec38339815191525460ff16610260565b34801561054357600080fd5b5061037f61055236600461292c565b611029565b34801561056357600080fd5b50610316610572366004612804565b611075565b34801561058357600080fd5b506103166110a3565b61026061059a366004612972565b6110b6565b3480156105ab57600080fd5b506103166105ba366004612804565b61143c565b3480156105cb57600080fd5b506102606105da3660046128ef565b61145f565b3480156105eb57600080fd5b506105ff6105fa3660046129af565b611497565b60405161026c91906129e0565b34801561061857600080fd5b5061037f610627366004612678565b6114f7565b34801561063857600080fd5b50610316610647366004612a08565b611518565b34801561065857600080fd5b5061037f600081565b610260611738565b34801561067557600080fd5b50610316610684366004612a86565b61188c565b34801561069557600080fd5b5061037f6106a436600461281f565b600560209081526000948552604080862082529385528385208152918452828420909152825290205481565b3480156106dc57600080fd5b506103166106eb366004612ad9565b6119ae565b3480156106fc57600080fd5b5061031661070b366004612730565b611a4a565b34801561071c57600080fd5b5061031661072b366004612804565b611d26565b34801561073c57600080fd5b5061037f61074b366004612b03565b611e32565b34801561075c57600080fd5b5061031661076b3660046128ef565b612081565b34801561077c57600080fd5b5061037f600080516020612e8383398151915281565b34801561079e57600080fd5b506107b26107ad366004612b6b565b61209d565b6040805192835260208301919091520161026c565b60006001600160e01b03198216637965db0b60e01b14806107f857506301ffc9a760e01b6001600160e01b03198316145b92915050565b60006108086120d9565b6000821161085d5760405162461bcd60e51b815260206004820152601d60248201527f416d6f756e74206d7573742062652067726561746572207468616e203000000060448201526064015b60405180910390fd5b600061086a606484612bb5565b6002546040516370a0823160e01b815233600482015291925084916001600160a01b03909116906370a0823190602401602060405180830381865afa1580156108b7573d6000803e3d6000fd5b505050506040513d601f19601f820116820180604052508101906108db9190612bd7565b10156109295760405162461bcd60e51b815260206004820152601860248201527f496e73756666696369656e74204d6f6e2062616c616e636500000000000000006044820152606401610854565b804710156109795760405162461bcd60e51b815260206004820152601c60248201527f496e73756666696369656e742045544820696e20636f6e7472616374000000006044820152606401610854565b600254610991906001600160a01b0316333086612111565b604051339082156108fc029083906000818181858888f193505050501580156109be573d6000803e3d6000fd5b5060019150506109db6001600080516020612ee383398151915255565b919050565b600660205260009081526040902080546001820154600283015460038401546004850180549495939492939192610a1690612bf0565b80601f0160208091040260200160405190810160405280929190818152602001828054610a4290612bf0565b8015610a8f5780601f10610a6457610100808354040283529160200191610a8f565b820191906000526020600020905b815481529060010190602001808311610a7257829003601f168201915b505050600590930154919250506001600160a01b0381169060ff600160a01b8204811691600160a81b90041688565b610b1960405180610140016040528060608152602001600081526020016000815260200160008152602001600015158152602001600060ff168152602001600081526020016000815260200160008152602001600081525090565b6000838152600660208181526040808420868552928301909152918290208251610140810190935280549192909181908390610b5490612bf0565b80601f0160208091040260200160405190810160405280929190818152602001828054610b8090612bf0565b8015610bcd5780601f10610ba257610100808354040283529160200191610bcd565b820191906000526020600020905b815481529060010190602001808311610bb057829003601f168201915b5050509183525050600683015460208201526004830154604082015260058301546060820152600783015460ff808216151560808401526101009091041660a082015260c001600183016000808152602001908152602001600020548152602001826001016000600180811115610c4657610c466129ca565b6001811115610c5757610c576129ca565b8152602001908152602001600020548152602001826002016000806001811115610c8357610c836129ca565b6001811115610c9457610c946129ca565b8152602001908152602001600020548152602001826002016000600180811115610cc057610cc06129ca565b6001811115610cd157610cd16129ca565b8152602001908152602001600020548152509250505092915050565b6000610cf881612178565b6103e8821115610d395760405162461bcd60e51b815260206004820152600c60248201526b08ccaca40e8dede40d0d2ced60a31b6044820152606401610854565b50600355565b6000610d4a81612178565b610d747f40f542d5ab793c69bab1459e38d9a48948539eac7137c4e42b2abc10374ef6c183612182565b505050565b610dcf604051806101000160405280600081526020016000815260200160008152602001600081526020016060815260200160006001600160a01b03168152602001600015158152602001600060ff1681525090565b600060066000848152602001908152602001600020905060405180610100016040528082600001548152602001826001015481526020018260020154815260200182600301548152602001826004018054610e2990612bf0565b80601f0160208091040260200160405190810160405280929190818152602001828054610e5590612bf0565b8015610ea25780601f10610e7757610100808354040283529160200191610ea2565b820191906000526020600020905b815481529060010190602001808311610e8557829003601f168201915b50505091835250506005909201546001600160a01b038116602084015260ff600160a01b8204811615156040850152600160a81b9091041660609092019190915292915050565b6000908152600080516020612ea3833981519152602052604090206001015490565b610f1482610ee9565b610f1d81612178565b610f278383612182565b50505050565b6001600160a01b0381163314610f565760405163334bd91960e11b815260040160405180910390fd5b610d748282612227565b6000610f6b81612178565b60405133904780156108fc02916000818181858888f19350505050158015610f97573d6000803e3d6000fd5b5050565b6000610fa681612178565b610fae6122a3565b50565b600080610fbd83611497565b6001600160a01b03851660009081526005602090815260408083208a845282528083208984529091528120919250826001811115610ffd57610ffd6129ca565b600181111561100e5761100e6129ca565b8152602001908152602001600020549150505b949350505050565b60008061103583611497565b6001600160a01b03851660009081526004602090815260408083208a845282528083208984529091528120919250826001811115610ffd57610ffd6129ca565b600061108081612178565b50600280546001600160a01b0319166001600160a01b0392909216919091179055565b60006110ae81612178565b610fae612303565b60006110c06120d9565b600085815260066020526040812080549091036111115760405162461bcd60e51b815260206004820152600f60248201526e115d995b9d081b9bdd08199bdd5b99608a1b6044820152606401610854565b80600101544210156111595760405162461bcd60e51b8152602060048201526011602482015270115d995b9d081b9bdd081cdd185c9d1959607a1b6044820152606401610854565b8060020154421061119a5760405162461bcd60e51b815260206004820152600b60248201526a115d995b9d08195b99195960aa1b6044820152606401610854565b60008581526006820160205260409020600781015460ff16156111f35760405162461bcd60e51b815260206004820152601160248201527010dbdb991a5d1a5bdb881cd95d1d1b1959607a1b6044820152606401610854565b600084116112135760405162461bcd60e51b815260040161085490612c2a565b600061121e86611497565b9050600061122e8989888a61234c565b6002549092506001600160a01b0316905061124b81333085612111565b86846001016000856001811115611264576112646129ca565b6001811115611275576112756129ca565b815260200190815260200160002060008282546112929190612c6b565b909155508290506002850160008560018111156112b1576112b16129ca565b60018111156112c2576112c26129ca565b815260200190815260200160002060008282546112df9190612c6b565b90915550503360009081526004602090815260408083208d845282528083208c84529091528120889185600181111561131a5761131a6129ca565b600181111561132b5761132b6129ca565b815260200190815260200160002060008282546113489190612c6b565b90915550503360009081526005602090815260408083208d845282528083208c845290915281208391856001811115611383576113836129ca565b6001811115611394576113946129ca565b815260200190815260200160002060008282546113b19190612c6b565b90915550506001546040805133815260ff8b166020820152908101899052606081018490528a918c917f9a6da61769a2458b243950af127ee61b8d56d713bb707951aa4df6dcd0c868bd9060800160405180910390a46001805490600061141783612c7e565b91905055506001955050505050506110216001600080516020612ee383398151915255565b600061144781612178565b610d74600080516020612e8383398151915283612182565b6000918252600080516020612ea3833981519152602090815260408084206001600160a01b0393909316845291905290205460ff1690565b6000600160ff831611156114e25760405162461bcd60e51b8152602060048201526012602482015271496e76616c696420656e756d2076616c756560701b6044820152606401610854565b8160ff1660018111156107f8576107f86129ca565b6007818154811061150757600080fd5b600091825260209091200154905081565b6115206120d9565b7f40f542d5ab793c69bab1459e38d9a48948539eac7137c4e42b2abc10374ef6c161154a81612178565b600084815260066020818152604080842087855290920190529020600781015460ff16156115ac5760405162461bcd60e51b815260206004820152600f60248201526e105b1c9958591e481cd95d1d1b1959608a1b6044820152606401610854565b60078101805460ff1960ff8616610100021661ffff19909116176001179055600060078201546115e390610100900460ff16611497565b60018111156115f4576115f46129ca565b03611659576003546001600090815260028301602052604081205490916127109161161f9190612c97565b6116299190612bb5565b6001600090815260028401602052604090205490915061164a908290612cae565b600483015560058201556116b1565b600354600080805260028301602052604081205490916127109161167d9190612c97565b6116879190612bb5565b60008080526002840160205260409020549091506116a6908290612cae565b600483015560058201555b600180549060006116c183612c7e565b9091555050600154600482015460058301546040805160ff881681526020810193909352820152336060820152859187917f39514260eea240ff65fbce541865715f1a263dd719c98399c411547de759235f9060800160405180910390a45050610d746001600080516020612ee383398151915255565b60006117426120d9565b6000341161178a5760405162461bcd60e51b8152602060048201526015602482015274125b9cdd59999a58da595b9d08115512081cd95b9d605a1b6044820152606401610854565b6000611797346064612c97565b6002546040516370a0823160e01b815230600482015291925082916001600160a01b03909116906370a0823190602401602060405180830381865afa1580156117e4573d6000803e3d6000fd5b505050506040513d601f19601f820116820180604052508101906118089190612bd7565b10156118565760405162461bcd60e51b815260206004820152601d60248201527f496e73756666696369656e74205553444f20696e20636f6e74726163740000006044820152606401610854565b60025461186d906001600160a01b03163383612479565b60019150506118896001600080516020612ee383398151915255565b90565b6118946120d9565b600080516020612e838339815191526118ac81612178565b600085815260066020526040812080549091036118fd5760405162461bcd60e51b815260206004820152600f60248201526e115d995b9d081b9bdd08199bdd5b99608a1b6044820152606401610854565b6000816003016000815461191090612c7e565b91829055506000818152600684016020526040902090915080611934868883612d1f565b5086816006018190555081886001547fa3b9094ca5feee9b5073423a4e760a057a7080d3327905cb6f06373d89d7509e8a8a8a60405161197693929190612e09565b60405180910390a46001805490600061198e83612c7e565b919050555050505050610f276001600080516020612ee383398151915255565b60006119b981612178565b6119c16120d9565b60405163a9059cbb60e01b8152336004820152602481018390526001600160a01b0384169063a9059cbb906044016020604051808303816000875af1158015611a0e573d6000803e3d6000fd5b505050506040513d601f19601f82011682018060405250810190611a329190612e2c565b50610d746001600080516020612ee383398151915255565b611a526120d9565b600082815260066020818152604080842085855290920190529020600781015460ff16611ab25760405162461bcd60e51b815260206004820152600e60248201526d14995cdd5b1d081b9bdd081cd95d60921b6044820152606401610854565b33600090815260038201602052604090205460ff1615611b065760405162461bcd60e51b815260206004820152600f60248201526e105b1c9958591e4818db185a5b5959608a1b6044820152606401610854565b60008080526001828101602052604080832054918352822054600784015483928392909183908190611b3f90610100900460ff16611497565b6001811115611b5057611b506129ca565b03611bb157503360008181526004602090815260408083208c845282528083208b84528252808320838052825280832054938352600582528083208c845282528083208b845282528083208380529091529020549094509192508291611c0c565b503360008181526004602090815260408083208c845282528083208b84528252808320600180855290835281842054948452600583528184208d855283528184208c8552835281842090845290915290205490945090925082905b60008511611c4f5760405162461bcd60e51b815260206004820152601060248201526f4e6f2077696e6e696e67207374616b6560801b6044820152606401610854565b83858860040154611c609190612c97565b611c6a9190612bb5565b33600081815260038a0160205260409020805460ff191660011790556002549197506001600160a01b039190911690611cb890611ca78985612c6b565b6001600160a01b0384169190612479565b6001546040805133815260208101859052908101889052606081018990528a918c917f80121d7198fa687a09ff67718febecad4335c9dbad4bcf5c581b7c544660d9479060800160405180910390a45050505050505050610f976001600080516020612ee383398151915255565b6000611d306124aa565b805490915060ff600160401b820416159067ffffffffffffffff16600081158015611d585750825b905060008267ffffffffffffffff166001148015611d755750303b155b905081158015611d83575080155b15611da15760405163f92ee8a960e01b815260040160405180910390fd5b845467ffffffffffffffff191660011785558315611dcb57845460ff60401b1916600160401b1785555b611dd36124d3565b611ddb6124d3565b611de4866124dd565b8315611e2a57845460ff60401b19168555604051600181527fc7f505b2f371ae2175ee4913f4499e1f2633a7b5936321eed1cdaeb6115181d29060200160405180910390a15b505050505050565b6000600080516020612e83833981519152611e4c81612178565b611e546120d9565b428611611ea35760405162461bcd60e51b815260206004820181905260248201527f53746172742074696d65206d75737420626520696e20746865206675747572656044820152606401610854565b428511611ef25760405162461bcd60e51b815260206004820152601e60248201527f456e642074696d65206d75737420626520696e207468652066757475726500006044820152606401610854565b858511611f505760405162461bcd60e51b815260206004820152602660248201527f456e642074696d65206d757374206265206c61746572207468616e2073746172604482015265742074696d6560d01b6064820152608401610854565b600080548180611f5f83612c7e565b90915550600081815260066020526040902081815560058101805460ff60a81b1916600160a81b60ff8d1602179055600181018990556002810188905590915060048101611fae868883612d1f565b50338160050160006101000a8154816001600160a01b0302191690836001600160a01b031602179055506007829080600181540180825580915050600190039060005260206000200160009091909190915055336001600160a01b0316826001547f0cbbb77c8672e9c7b779b0931d3b9688971d4ffea1382b8f81bdfc137fe3f4088b8b8e8c8c604051612046959493929190612e4e565b60405180910390a46001805490600061205e83612c7e565b90915550506001600080516020612ee38339815191525550979650505050505050565b61208a82610ee9565b61209381612178565b610f278383612227565b600080600084116120c05760405162461bcd60e51b815260040161085490612c2a565b6120cc8686868661234c565b9097909650945050505050565b600080516020612ee383398151915280546001190161210b57604051633ee5aeb560e01b815260040160405180910390fd5b60029055565b6040516001600160a01b038481166024830152838116604483015260648201839052610f279186918216906323b872dd906084015b604051602081830303815290604052915060e01b6020820180516001600160e01b0383818316178352505050506124fd565b610fae813361256e565b6000600080516020612ea383398151915261219d848461145f565b61221d576000848152602082815260408083206001600160a01b03871684529091529020805460ff191660011790556121d33390565b6001600160a01b0316836001600160a01b0316857f2f8788117e7eff1d82e926ec794901d17c78024a50270940304540a733656f0d60405160405180910390a460019150506107f8565b60009150506107f8565b6000600080516020612ea3833981519152612242848461145f565b1561221d576000848152602082815260408083206001600160a01b0387168085529252808320805460ff1916905551339287917ff6391f5c32d9c69d2a47ea670b442974b53935d1edc7fd64eb21e047a839171b9190a460019150506107f8565b6122ab6125a7565b600080516020612ec3833981519152805460ff191681557f5db9ee0a495bf2e6ff9c91a7834c1ba4fdd244a5e8aa4e537bd38aeae4b073aa335b6040516001600160a01b03909116815260200160405180910390a150565b61230b6125d7565b600080516020612ec3833981519152805460ff191660011781557f62e78cea01bee320cd4e420270b5ea74000d11b0c9f74754ebdbfc544b05a258336122e5565b6000848152600660208181526040808420878552909201815281832083805260018082019092528284205491845291832054839291908361238d8284612c6b565b600685015490915060008290036123b7579550856123ab8982612c97565b95505050505050612470565b60006123c289611497565b905060008160018111156123d8576123d86129ca565b0361241f57836123e88b87612c6b565b6123f29190612c6b565b6123fc8b87612c6b565b61240e90670de0b6b3a7640000612c97565b6124189190612bb5565b975061245d565b8961242a8587612c6b565b6124349190612c6b565b61243e8b86612c6b565b61245090670de0b6b3a7640000612c97565b61245a9190612bb5565b97505b6124678a89612c97565b96505050505050505b94509492505050565b6040516001600160a01b03838116602483015260448201839052610d7491859182169063a9059cbb90606401612146565b6000807ff0c57e16840df040f15088dc2f81fe391c3923bec73e23a9662efc9c229c6a006107f8565b6124db612608565b565b6124e5612608565b6124f0600082612182565b5050600160008190558055565b600080602060008451602086016000885af180612520576040513d6000823e3d81fd5b50506000513d91508115612538578060011415612545565b6001600160a01b0384163b155b15610f2757604051635274afe760e01b81526001600160a01b0385166004820152602401610854565b612578828261145f565b610f975760405163e2517d3f60e01b81526001600160a01b038216600482015260248101839052604401610854565b600080516020612ec38339815191525460ff166124db57604051638dfc202b60e01b815260040160405180910390fd5b600080516020612ec38339815191525460ff16156124db5760405163d93c066560e01b815260040160405180910390fd5b61261061262d565b6124db57604051631afcd79f60e31b815260040160405180910390fd5b60006126376124aa565b54600160401b900460ff16919050565b60006020828403121561265957600080fd5b81356001600160e01b03198116811461267157600080fd5b9392505050565b60006020828403121561268a57600080fd5b5035919050565b6000815180845260005b818110156126b75760208185018101518683018201520161269b565b506000602082860101526020601f19601f83011685010191505092915050565b60006101008a835289602084015288604084015287606084015280608084015261270381840188612691565b6001600160a01b039690961660a0840152505091151560c083015260ff1660e09091015295945050505050565b6000806040838503121561274357600080fd5b50508035926020909101359150565b6020815260008251610140806020850152612771610160850183612691565b915060208501516040850152604085015160608501526060850151608085015260808501516127a460a086018215159052565b5060a085015160ff811660c08601525060c085015160e0858101919091528501516101008086019190915285015161012080860191909152909401519390920192909252919050565b80356001600160a01b03811681146109db57600080fd5b60006020828403121561281657600080fd5b612671826127ed565b6000806000806080858703121561283557600080fd5b61283e856127ed565b9350602085013592506040850135915060608501356002811061286057600080fd5b939692955090935050565b6020815281516020820152602082015160408201526040820151606082015260608201516080820152600060808301516101008060a08501526128b2610120850183612691565b915060018060a01b0360a08601511660c085015260c0850151151560e085015260e08501516128e58286018260ff169052565b5090949350505050565b6000806040838503121561290257600080fd5b82359150612912602084016127ed565b90509250929050565b803560ff811681146109db57600080fd5b6000806000806080858703121561294257600080fd5b8435935060208501359250612959604086016127ed565b91506129676060860161291b565b905092959194509250565b6000806000806080858703121561298857600080fd5b843593506020850135925061299f6040860161291b565b9396929550929360600135925050565b6000602082840312156129c157600080fd5b6126718261291b565b634e487b7160e01b600052602160045260246000fd5b6020810160028310612a0257634e487b7160e01b600052602160045260246000fd5b91905290565b600080600060608486031215612a1d57600080fd5b8335925060208401359150612a346040850161291b565b90509250925092565b60008083601f840112612a4f57600080fd5b50813567ffffffffffffffff811115612a6757600080fd5b602083019150836020828501011115612a7f57600080fd5b9250929050565b60008060008060608587031215612a9c57600080fd5b8435935060208501359250604085013567ffffffffffffffff811115612ac157600080fd5b612acd87828801612a3d565b95989497509550505050565b60008060408385031215612aec57600080fd5b612af5836127ed565b946020939093013593505050565b600080600080600060808688031215612b1b57600080fd5b612b248661291b565b94506020860135935060408601359250606086013567ffffffffffffffff811115612b4e57600080fd5b612b5a88828901612a3d565b969995985093965092949392505050565b60008060008060808587031215612b8157600080fd5b8435935060208501359250604085013591506129676060860161291b565b634e487b7160e01b600052601160045260246000fd5b600082612bd257634e487b7160e01b600052601260045260246000fd5b500490565b600060208284031215612be957600080fd5b5051919050565b600181811c90821680612c0457607f821691505b602082108103612c2457634e487b7160e01b600052602260045260246000fd5b50919050565b60208082526021908201527f42657420616d6f756e74206d7573742062652067726561746572207468616e206040820152600360fc1b606082015260800190565b808201808211156107f8576107f8612b9f565b600060018201612c9057612c90612b9f565b5060010190565b80820281158282048414176107f8576107f8612b9f565b818103818111156107f8576107f8612b9f565b634e487b7160e01b600052604160045260246000fd5b601f821115610d74576000816000526020600020601f850160051c81016020861015612d005750805b601f850160051c820191505b81811015611e2a57828155600101612d0c565b67ffffffffffffffff831115612d3757612d37612cc1565b612d4b83612d458354612bf0565b83612cd7565b6000601f841160018114612d7f5760008515612d675750838201355b600019600387901b1c1916600186901b178355612dd9565b600083815260209020601f19861690835b82811015612db05786850135825560209485019460019092019101612d90565b5086821015612dcd5760001960f88860031b161c19848701351681555b505060018560011b0183555b5050505050565b81835281816020850137506000828201602090810191909152601f909101601f19169091010190565b838152604060208201526000612e23604083018486612de0565b95945050505050565b600060208284031215612e3e57600080fd5b8151801515811461267157600080fd5b85815284602082015260ff84166040820152608060608201526000612e77608083018486612de0565b97965050505050505056fe7263713b378e463b1abfeab89a5672633e678c6915a90afe819fcbb4e75efb4302dd7bc7dec4dceedda775e58dd541e08a116c6c53815c0bd028192f7b626800cd5ed15c6e187e77e9aee88184c21f4f2182ab5827cb3b7e07fbedcd63f033009b779b17422d0df92223018b32b4d1fa46e071723d6817e2486d003becc55f00a264697066735822122083d0ee4301dc936632540e8fa192288d3dcfa866ba33b1cae087a07efba6310f64736f6c63430008190033","linkReferences":{}},"methodIdentifiers":{"DEFAULT_ADMIN_ROLE()":"a217fddf","EVENT_EMITTER_ROLE()":"d7056c20","EVENT_SETTLER_ROLE()":"1cfdd601","acceptedToken()":"451c3d80","addCondition(uint256,uint256,string)":"a4b21190","addEventEmitter(address)":"8f511360","addEventSettler(address)":"134ce466","bet(uint256,uint256,uint8,uint256)":"89391c40","buyToken()":"a4821719","claim(uint256,uint256)":"c3490263","claimMon(uint256)":"0b359fb1","eventIds(uint256)":"998f6ac0","eventNonce()":"1c3e6ee6","events(uint256)":"0b791430","getConditionInfo(uint256,uint256)":"11ef2cd2","getEstimatedPrice(uint256,uint256,uint256,uint8)":"ebbc56ff","getEventInfo(uint256)":"1d645b12","getRoleAdmin(bytes32)":"248a9ca3","getUserBet(uint256,uint256,address,uint8)":"5f3693ad","getUserPaid(uint256,uint256,address,uint8)":"44c62ca6","globalNonce()":"37e23222","grantRole(bytes32,address)":"2f2ff15d","hasRole(bytes32,address)":"91d14854","initialize(address)":"c4d66de8","pause()":"8456cb59","paused()":"5c975abb","platformFee()":"26232a2e","renounceRole(bytes32,address)":"36568abe","revokeRole(bytes32,address)":"d547741f","sendGuessEvent(uint8,uint256,uint256,string)":"cf47bfa0","setAcceptedToken(address)":"7487f528","setPlatformFee(uint256)":"12e8e2c3","settleCondition(uint256,uint256,uint8)":"9eb9d8b9","supportsInterface(bytes4)":"01ffc9a7","uintToOption(uint8)":"92b0b7ee","unpause()":"3f4ba83a","userBets(address,uint256,uint256,uint8)":"19acb513","userPaid(address,uint256,uint256,uint8)":"b32c3677","withdraw()":"3ccfd60b","withdrawErc20(address,uint256)":"bd1f4b52"},"id":52}