{"abi":[{"type":"constructor","inputs":[],"stateMutability":"nonpayable"},{"type":"function","name":"ADMIN_ROLE","inputs":[],"outputs":[{"name":"","type":"bytes32","internalType":"bytes32"}],"stateMutability":"view"},{"type":"function","name":"DEFAULT_ADMIN_ROLE","inputs":[],"outputs":[{"name":"","type":"bytes32","internalType":"bytes32"}],"stateMutability":"view"},{"type":"function","name":"MAX_TREASURY_FEE","inputs":[],"outputs":[{"name":"","type":"uint256","internalType":"uint256"}],"stateMutability":"view"},{"type":"function","name":"OPERATOR_ROLE","inputs":[],"outputs":[{"name":"","type":"bytes32","internalType":"bytes32"}],"stateMutability":"view"},{"type":"function","name":"_safeGetPriceFromOracle","inputs":[{"name":"oracle","type":"address","internalType":"contract AggregatorV3Interface"},{"name":"storedOracleLatestRoundId","type":"uint256","internalType":"uint256"}],"outputs":[{"name":"","type":"uint80","internalType":"uint80"},{"name":"","type":"int256","internalType":"int256"}],"stateMutability":"view"},{"type":"function","name":"activeAssetIds","inputs":[{"name":"","type":"uint256","internalType":"uint256"}],"outputs":[{"name":"","type":"uint256","internalType":"uint256"}],"stateMutability":"view"},{"type":"function","name":"addAsset","inputs":[{"name":"symbol","type":"string","internalType":"string"},{"name":"oracle","type":"address","internalType":"address"},{"name":"minBetAmount","type":"uint256","internalType":"uint256"}],"outputs":[{"name":"assetId","type":"uint256","internalType":"uint256"}],"stateMutability":"nonpayable"},{"type":"function","name":"addMultipleAssets","inputs":[{"name":"symbols","type":"string[]","internalType":"string[]"},{"name":"oracles","type":"address[]","internalType":"address[]"},{"name":"minBetAmounts","type":"uint256[]","internalType":"uint256[]"}],"outputs":[],"stateMutability":"nonpayable"},{"type":"function","name":"adminCleanupStuckRounds","inputs":[{"name":"assetId","type":"uint256","internalType":"uint256"},{"name":"startEpoch","type":"uint256","internalType":"uint256"},{"name":"endEpoch","type":"uint256","internalType":"uint256"}],"outputs":[],"stateMutability":"nonpayable"},{"type":"function","name":"assetCount","inputs":[],"outputs":[{"name":"","type":"uint256","internalType":"uint256"}],"stateMutability":"view"},{"type":"function","name":"assets","inputs":[{"name":"","type":"uint256","internalType":"uint256"}],"outputs":[{"name":"symbol","type":"string","internalType":"string"},{"name":"oracle","type":"address","internalType":"contract AggregatorV3Interface"},{"name":"active","type":"bool","internalType":"bool"},{"name":"minBetAmount","type":"uint256","internalType":"uint256"},{"name":"genesisLockOnce","type":"bool","internalType":"bool"},{"name":"genesisStartOnce","type":"bool","internalType":"bool"},{"name":"currentEpoch","type":"uint256","internalType":"uint256"},{"name":"oracleLatestRoundId","type":"uint256","internalType":"uint256"},{"name":"treasuryAmount","type":"uint256","internalType":"uint256"}],"stateMutability":"view"},{"type":"function","name":"betBear","inputs":[{"name":"assetId","type":"uint256","internalType":"uint256"},{"name":"epoch","type":"uint256","internalType":"uint256"}],"outputs":[],"stateMutability":"payable"},{"type":"function","name":"betBull","inputs":[{"name":"assetId","type":"uint256","internalType":"uint256"},{"name":"epoch","type":"uint256","internalType":"uint256"}],"outputs":[],"stateMutability":"payable"},{"type":"function","name":"bufferSeconds","inputs":[],"outputs":[{"name":"","type":"uint256","internalType":"uint256"}],"stateMutability":"view"},{"type":"function","name":"claim","inputs":[{"name":"assetId","type":"uint256","internalType":"uint256"},{"name":"epochs","type":"uint256[]","internalType":"uint256[]"}],"outputs":[],"stateMutability":"nonpayable"},{"type":"function","name":"claimMultipleAssets","inputs":[{"name":"assetIds","type":"uint256[]","internalType":"uint256[]"},{"name":"epochsPerAsset","type":"uint256[][]","internalType":"uint256[][]"}],"outputs":[],"stateMutability":"nonpayable"},{"type":"function","name":"claimTreasury","inputs":[{"name":"assetId","type":"uint256","internalType":"uint256"}],"outputs":[],"stateMutability":"nonpayable"},{"type":"function","name":"claimable","inputs":[{"name":"assetId","type":"uint256","internalType":"uint256"},{"name":"epoch","type":"uint256","internalType":"uint256"},{"name":"user","type":"address","internalType":"address"}],"outputs":[{"name":"","type":"bool","internalType":"bool"}],"stateMutability":"view"},{"type":"function","name":"executeRound","inputs":[{"name":"assetId","type":"uint256","internalType":"uint256"}],"outputs":[],"stateMutability":"nonpayable"},{"type":"function","name":"executeRoundBatch","inputs":[{"name":"assetIds","type":"uint256[]","internalType":"uint256[]"}],"outputs":[],"stateMutability":"nonpayable"},{"type":"function","name":"genesisLockRound","inputs":[{"name":"assetId","type":"uint256","internalType":"uint256"}],"outputs":[],"stateMutability":"nonpayable"},{"type":"function","name":"genesisLockRoundBatch","inputs":[{"name":"assetIds","type":"uint256[]","internalType":"uint256[]"}],"outputs":[],"stateMutability":"nonpayable"},{"type":"function","name":"genesisStartRound","inputs":[{"name":"assetId","type":"uint256","internalType":"uint256"}],"outputs":[],"stateMutability":"nonpayable"},{"type":"function","name":"genesisStartRoundBatch","inputs":[{"name":"assetIds","type":"uint256[]","internalType":"uint256[]"}],"outputs":[],"stateMutability":"nonpayable"},{"type":"function","name":"getActiveAssets","inputs":[],"outputs":[{"name":"","type":"uint256[]","internalType":"uint256[]"}],"stateMutability":"view"},{"type":"function","name":"getAllAssetsStatus","inputs":[],"outputs":[{"name":"assetIds","type":"uint256[]","internalType":"uint256[]"},{"name":"epochs","type":"uint256[]","internalType":"uint256[]"},{"name":"statuses","type":"bool[]","internalType":"bool[]"}],"stateMutability":"view"},{"type":"function","name":"getAsset","inputs":[{"name":"assetId","type":"uint256","internalType":"uint256"}],"outputs":[{"name":"","type":"tuple","internalType":"struct PriceBaseMultiAsset.AssetInfo","components":[{"name":"symbol","type":"string","internalType":"string"},{"name":"oracle","type":"address","internalType":"contract AggregatorV3Interface"},{"name":"active","type":"bool","internalType":"bool"},{"name":"minBetAmount","type":"uint256","internalType":"uint256"},{"name":"genesisLockOnce","type":"bool","internalType":"bool"},{"name":"genesisStartOnce","type":"bool","internalType":"bool"},{"name":"currentEpoch","type":"uint256","internalType":"uint256"},{"name":"oracleLatestRoundId","type":"uint256","internalType":"uint256"},{"name":"treasuryAmount","type":"uint256","internalType":"uint256"}]}],"stateMutability":"view"},{"type":"function","name":"getAssetStatistics","inputs":[{"name":"assetId","type":"uint256","internalType":"uint256"}],"outputs":[{"name":"totalBets","type":"uint256","internalType":"uint256"},{"name":"totalVolume","type":"uint256","internalType":"uint256"},{"name":"totalTreasury","type":"uint256","internalType":"uint256"},{"name":"activeRounds","type":"uint256","internalType":"uint256"}],"stateMutability":"view"},{"type":"function","name":"getRoleAdmin","inputs":[{"name":"role","type":"bytes32","internalType":"bytes32"}],"outputs":[{"name":"","type":"bytes32","internalType":"bytes32"}],"stateMutability":"view"},{"type":"function","name":"getUserRounds","inputs":[{"name":"assetId","type":"uint256","internalType":"uint256"},{"name":"user","type":"address","internalType":"address"},{"name":"cursor","type":"uint256","internalType":"uint256"},{"name":"size","type":"uint256","internalType":"uint256"}],"outputs":[{"name":"","type":"uint256[]","internalType":"uint256[]"},{"name":"","type":"uint256","internalType":"uint256"}],"stateMutability":"view"},{"type":"function","name":"getUserRoundsLength","inputs":[{"name":"assetId","type":"uint256","internalType":"uint256"},{"name":"user","type":"address","internalType":"address"}],"outputs":[{"name":"","type":"uint256","internalType":"uint256"}],"stateMutability":"view"},{"type":"function","name":"getUserTotalClaimable","inputs":[{"name":"user","type":"address","internalType":"address"}],"outputs":[{"name":"totalClaimable","type":"uint256","internalType":"uint256"},{"name":"claimableAssets","type":"uint256[]","internalType":"uint256[]"},{"name":"claimableEpochs","type":"uint256[][]","internalType":"uint256[][]"}],"stateMutability":"view"},{"type":"function","name":"grantRole","inputs":[{"name":"role","type":"bytes32","internalType":"bytes32"},{"name":"account","type":"address","internalType":"address"}],"outputs":[],"stateMutability":"nonpayable"},{"type":"function","name":"hasRole","inputs":[{"name":"role","type":"bytes32","internalType":"bytes32"},{"name":"account","type":"address","internalType":"address"}],"outputs":[{"name":"","type":"bool","internalType":"bool"}],"stateMutability":"view"},{"type":"function","name":"initialize","inputs":[{"name":"_admin","type":"address","internalType":"address"},{"name":"_operator","type":"address","internalType":"address"},{"name":"_intervalSeconds","type":"uint256","internalType":"uint256"},{"name":"_bufferSeconds","type":"uint256","internalType":"uint256"},{"name":"_treasuryFee","type":"uint256","internalType":"uint256"},{"name":"_oracleUpdateAllowance","type":"uint256","internalType":"uint256"}],"outputs":[],"stateMutability":"nonpayable"},{"type":"function","name":"intervalSeconds","inputs":[],"outputs":[{"name":"","type":"uint256","internalType":"uint256"}],"stateMutability":"view"},{"type":"function","name":"ledger","inputs":[{"name":"","type":"uint256","internalType":"uint256"},{"name":"","type":"uint256","internalType":"uint256"},{"name":"","type":"address","internalType":"address"}],"outputs":[{"name":"position","type":"uint8","internalType":"enum PriceBaseMultiAsset.Position"},{"name":"amount","type":"uint256","internalType":"uint256"},{"name":"claimed","type":"bool","internalType":"bool"}],"stateMutability":"view"},{"type":"function","name":"oracleUpdateAllowance","inputs":[],"outputs":[{"name":"","type":"uint256","internalType":"uint256"}],"stateMutability":"view"},{"type":"function","name":"pause","inputs":[],"outputs":[],"stateMutability":"nonpayable"},{"type":"function","name":"paused","inputs":[],"outputs":[{"name":"","type":"bool","internalType":"bool"}],"stateMutability":"view"},{"type":"function","name":"refundable","inputs":[{"name":"assetId","type":"uint256","internalType":"uint256"},{"name":"epoch","type":"uint256","internalType":"uint256"},{"name":"user","type":"address","internalType":"address"}],"outputs":[{"name":"","type":"bool","internalType":"bool"}],"stateMutability":"view"},{"type":"function","name":"renounceRole","inputs":[{"name":"role","type":"bytes32","internalType":"bytes32"},{"name":"callerConfirmation","type":"address","internalType":"address"}],"outputs":[],"stateMutability":"nonpayable"},{"type":"function","name":"revokeRole","inputs":[{"name":"role","type":"bytes32","internalType":"bytes32"},{"name":"account","type":"address","internalType":"address"}],"outputs":[],"stateMutability":"nonpayable"},{"type":"function","name":"rounds","inputs":[{"name":"","type":"uint256","internalType":"uint256"},{"name":"","type":"uint256","internalType":"uint256"}],"outputs":[{"name":"epoch","type":"uint256","internalType":"uint256"},{"name":"startTimestamp","type":"uint256","internalType":"uint256"},{"name":"lockTimestamp","type":"uint256","internalType":"uint256"},{"name":"closeTimestamp","type":"uint256","internalType":"uint256"},{"name":"lockPrice","type":"int256","internalType":"int256"},{"name":"closePrice","type":"int256","internalType":"int256"},{"name":"lockOracleId","type":"uint256","internalType":"uint256"},{"name":"closeOracleId","type":"uint256","internalType":"uint256"},{"name":"totalAmount","type":"uint256","internalType":"uint256"},{"name":"bullAmount","type":"uint256","internalType":"uint256"},{"name":"bearAmount","type":"uint256","internalType":"uint256"},{"name":"rewardBaseCalAmount","type":"uint256","internalType":"uint256"},{"name":"rewardAmount","type":"uint256","internalType":"uint256"},{"name":"oracleCalled","type":"bool","internalType":"bool"}],"stateMutability":"view"},{"type":"function","name":"setBufferAndIntervalSeconds","inputs":[{"name":"_bufferSeconds","type":"uint256","internalType":"uint256"},{"name":"_intervalSeconds","type":"uint256","internalType":"uint256"}],"outputs":[],"stateMutability":"nonpayable"},{"type":"function","name":"setMinBetAmount","inputs":[{"name":"assetId","type":"uint256","internalType":"uint256"},{"name":"_minBetAmount","type":"uint256","internalType":"uint256"}],"outputs":[],"stateMutability":"nonpayable"},{"type":"function","name":"setOracleUpdateAllowance","inputs":[{"name":"_oracleUpdateAllowance","type":"uint256","internalType":"uint256"}],"outputs":[],"stateMutability":"nonpayable"},{"type":"function","name":"setTreasuryFee","inputs":[{"name":"_treasuryFee","type":"uint256","internalType":"uint256"}],"outputs":[],"stateMutability":"nonpayable"},{"type":"function","name":"supportsInterface","inputs":[{"name":"interfaceId","type":"bytes4","internalType":"bytes4"}],"outputs":[{"name":"","type":"bool","internalType":"bool"}],"stateMutability":"view"},{"type":"function","name":"toggleAsset","inputs":[{"name":"assetId","type":"uint256","internalType":"uint256"}],"outputs":[],"stateMutability":"nonpayable"},{"type":"function","name":"treasuryFee","inputs":[],"outputs":[{"name":"","type":"uint256","internalType":"uint256"}],"stateMutability":"view"},{"type":"function","name":"unpause","inputs":[],"outputs":[],"stateMutability":"nonpayable"},{"type":"function","name":"updateAsset","inputs":[{"name":"assetId","type":"uint256","internalType":"uint256"},{"name":"symbol","type":"string","internalType":"string"},{"name":"oracle","type":"address","internalType":"address"},{"name":"minBetAmount","type":"uint256","internalType":"uint256"}],"outputs":[],"stateMutability":"nonpayable"},{"type":"function","name":"userRounds","inputs":[{"name":"","type":"uint256","internalType":"uint256"},{"name":"","type":"address","internalType":"address"},{"name":"","type":"uint256","internalType":"uint256"}],"outputs":[{"name":"","type":"uint256","internalType":"uint256"}],"stateMutability":"view"},{"type":"event","name":"AssetAdded","inputs":[{"name":"assetId","type":"uint256","indexed":true,"internalType":"uint256"},{"name":"symbol","type":"string","indexed":false,"internalType":"string"},{"name":"oracle","type":"address","indexed":false,"internalType":"address"}],"anonymous":false},{"type":"event","name":"AssetToggled","inputs":[{"name":"assetId","type":"uint256","indexed":true,"internalType":"uint256"},{"name":"active","type":"bool","indexed":false,"internalType":"bool"}],"anonymous":false},{"type":"event","name":"AssetUpdated","inputs":[{"name":"assetId","type":"uint256","indexed":true,"internalType":"uint256"},{"name":"symbol","type":"string","indexed":false,"internalType":"string"},{"name":"oracle","type":"address","indexed":false,"internalType":"address"},{"name":"minBetAmount","type":"uint256","indexed":false,"internalType":"uint256"}],"anonymous":false},{"type":"event","name":"BetBear","inputs":[{"name":"sender","type":"address","indexed":true,"internalType":"address"},{"name":"assetId","type":"uint256","indexed":true,"internalType":"uint256"},{"name":"epoch","type":"uint256","indexed":true,"internalType":"uint256"},{"name":"amount","type":"uint256","indexed":false,"internalType":"uint256"}],"anonymous":false},{"type":"event","name":"BetBull","inputs":[{"name":"sender","type":"address","indexed":true,"internalType":"address"},{"name":"assetId","type":"uint256","indexed":true,"internalType":"uint256"},{"name":"epoch","type":"uint256","indexed":true,"internalType":"uint256"},{"name":"amount","type":"uint256","indexed":false,"internalType":"uint256"}],"anonymous":false},{"type":"event","name":"Claim","inputs":[{"name":"sender","type":"address","indexed":true,"internalType":"address"},{"name":"assetId","type":"uint256","indexed":true,"internalType":"uint256"},{"name":"epoch","type":"uint256","indexed":true,"internalType":"uint256"},{"name":"amount","type":"uint256","indexed":false,"internalType":"uint256"}],"anonymous":false},{"type":"event","name":"EndRound","inputs":[{"name":"assetId","type":"uint256","indexed":true,"internalType":"uint256"},{"name":"epoch","type":"uint256","indexed":true,"internalType":"uint256"},{"name":"roundId","type":"uint256","indexed":true,"internalType":"uint256"},{"name":"price","type":"int256","indexed":false,"internalType":"int256"}],"anonymous":false},{"type":"event","name":"Initialized","inputs":[{"name":"version","type":"uint64","indexed":false,"internalType":"uint64"}],"anonymous":false},{"type":"event","name":"LockRound","inputs":[{"name":"assetId","type":"uint256","indexed":true,"internalType":"uint256"},{"name":"epoch","type":"uint256","indexed":true,"internalType":"uint256"},{"name":"roundId","type":"uint256","indexed":true,"internalType":"uint256"},{"name":"price","type":"int256","indexed":false,"internalType":"int256"},{"name":"decimals","type":"uint8","indexed":false,"internalType":"uint8"}],"anonymous":false},{"type":"event","name":"NewBufferAndIntervalSeconds","inputs":[{"name":"bufferSeconds","type":"uint256","indexed":false,"internalType":"uint256"},{"name":"intervalSeconds","type":"uint256","indexed":false,"internalType":"uint256"}],"anonymous":false},{"type":"event","name":"NewMinBetAmount","inputs":[{"name":"assetId","type":"uint256","indexed":true,"internalType":"uint256"},{"name":"minBetAmount","type":"uint256","indexed":false,"internalType":"uint256"}],"anonymous":false},{"type":"event","name":"NewOracleUpdateAllowance","inputs":[{"name":"oracleUpdateAllowance","type":"uint256","indexed":false,"internalType":"uint256"}],"anonymous":false},{"type":"event","name":"NewTreasuryFee","inputs":[{"name":"treasuryFee","type":"uint256","indexed":false,"internalType":"uint256"}],"anonymous":false},{"type":"event","name":"Paused","inputs":[{"name":"account","type":"address","indexed":false,"internalType":"address"}],"anonymous":false},{"type":"event","name":"RewardsCalculated","inputs":[{"name":"assetId","type":"uint256","indexed":true,"internalType":"uint256"},{"name":"epoch","type":"uint256","indexed":true,"internalType":"uint256"},{"name":"rewardBaseCalAmount","type":"uint256","indexed":false,"internalType":"uint256"},{"name":"rewardAmount","type":"uint256","indexed":false,"internalType":"uint256"},{"name":"treasuryAmount","type":"uint256","indexed":false,"internalType":"uint256"}],"anonymous":false},{"type":"event","name":"RoleAdminChanged","inputs":[{"name":"role","type":"bytes32","indexed":true,"internalType":"bytes32"},{"name":"previousAdminRole","type":"bytes32","indexed":true,"internalType":"bytes32"},{"name":"newAdminRole","type":"bytes32","indexed":true,"internalType":"bytes32"}],"anonymous":false},{"type":"event","name":"RoleGranted","inputs":[{"name":"role","type":"bytes32","indexed":true,"internalType":"bytes32"},{"name":"account","type":"address","indexed":true,"internalType":"address"},{"name":"sender","type":"address","indexed":true,"internalType":"address"}],"anonymous":false},{"type":"event","name":"RoleRevoked","inputs":[{"name":"role","type":"bytes32","indexed":true,"internalType":"bytes32"},{"name":"account","type":"address","indexed":true,"internalType":"address"},{"name":"sender","type":"address","indexed":true,"internalType":"address"}],"anonymous":false},{"type":"event","name":"RoundTimeout","inputs":[{"name":"assetId","type":"uint256","indexed":true,"internalType":"uint256"},{"name":"epoch","type":"uint256","indexed":true,"internalType":"uint256"},{"name":"totalAmount","type":"uint256","indexed":false,"internalType":"uint256"}],"anonymous":false},{"type":"event","name":"StartRound","inputs":[{"name":"assetId","type":"uint256","indexed":true,"internalType":"uint256"},{"name":"epoch","type":"uint256","indexed":true,"internalType":"uint256"},{"name":"startTimestamp","type":"uint256","indexed":false,"internalType":"uint256"},{"name":"lockTimestamp","type":"uint256","indexed":false,"internalType":"uint256"},{"name":"closeTimestamp","type":"uint256","indexed":false,"internalType":"uint256"}],"anonymous":false},{"type":"event","name":"TreasuryClaim","inputs":[{"name":"assetId","type":"uint256","indexed":true,"internalType":"uint256"},{"name":"amount","type":"uint256","indexed":false,"internalType":"uint256"}],"anonymous":false},{"type":"event","name":"Unpaused","inputs":[{"name":"account","type":"address","indexed":false,"internalType":"address"}],"anonymous":false},{"type":"error","name":"AccessControlBadConfirmation","inputs":[]},{"type":"error","name":"AccessControlUnauthorizedAccount","inputs":[{"name":"account","type":"address","internalType":"address"},{"name":"neededRole","type":"bytes32","internalType":"bytes32"}]},{"type":"error","name":"EnforcedPause","inputs":[]},{"type":"error","name":"ExpectedPause","inputs":[]},{"type":"error","name":"InvalidInitialization","inputs":[]},{"type":"error","name":"NotInitializing","inputs":[]},{"type":"error","name":"ReentrancyGuardReentrantCall","inputs":[]}],"bytecode":{"object":"0x6080806040523460b4577ff0c57e16840df040f15088dc2f81fe391c3923bec73e23a9662efc9c229c6a009081549060ff8260401c1660a557506001600160401b036002600160401b0319828216016061575b60405161566f90816100b98239f35b6001600160401b031990911681179091556040519081527fc7f505b2f371ae2175ee4913f4499e1f2633a7b5936321eed1cdaeb6115181d290602090a15f80806052565b63f92ee8a960e01b8152600490fd5b5f80fdfe6080806040526004361015610012575f80fd5b5f3560e01c90816301639fd1146135435750806301ffc9a7146134ed5780630b3944951461327c5780630e89e5a4146130f85780630fd8aee81461306857806315f5f6d614612f3857806319c66aae14612e58578063248a9ca314612e1f5780632f2ff15d14612dd657806332218cce14612bbd57806336568abe14612b765780633923e1b4146129f05780633f4ba83a1461296f57806340af61441461286b578063418519b71461281d5780634dcb2546146128045780635c975abb146127d657806360554011146127b957806375b238fc1461279257806377e741c7146126ff578063783cf332146126005780637a6539fb146123f55780637d1cd04f146123d85780637e06493e146123865780638456cb591461228a57806386489ba9146120e5578063876b35951461204c578063890dc76614611f7157806391d1485414611f1c5780639f9357d114611e71578063a217fddf14611e57578063ab7b99ff14611e20578063acecd3f814611d21578063b1b666521461187a578063b2ea136c146115ce578063b68f5c5b1461137c578063c796d0c21461114c578063cc32d1761461112f578063cf2f5039146110aa578063cf35bdd014610ffd578063d2ef21e014610f80578063d547741f14610f35578063dd3045c714610e48578063de47839514610aa9578063e1d20def146109ca578063e4a78c35146105f3578063e6da92131461052c578063e711a1191461045f578063eaba236114610443578063eac8f5b8146102f5578063eafe7a74146102d8578063f2b3c809146102bc578063f5b541a6146102955763fb1080f71461026e575f80fd5b3461029157602061028761028136613716565b91614297565b6040519015158152f35b5f80fd5b34610291575f3660031901126102915760206040515f8051602061557a8339815191528152f35b34610291575f3660031901126102915760206040516103e88152f35b34610291575f366003190112610291576020600454604051908152f35b346102915760208060031936011261029157610140906040516103178161362a565b606081525f828201525f60408201525f60608201525f60808201525f60a08201525f60c08201525f60e08201525f610100809201526004355f526005825260405f2091604051926103678461362a565b610370816137c2565b845260018101549260018060a01b039183860194838116865260ff604088019160a01c1615158152600282015460608801908152600383015490608089019060ff83161515825260ff60a08b019360081c161515835260048501549360c08b01948552600660058701549660e08d01978852015497878c01988952610409604051809e819e8d83525191610120809e8201520190613864565b9a511660408c015251151560608b01525160808a015251151560a089015251151560c08801525160e0870152519085015251908301520390f35b34610291575f3660031901126102915760205f54604051908152f35b3461029157602080600319360112610291576004356001600160401b038111610291576104909036906004016135fa565b335f9081525f8051602061561a833981519152602052604090205460ff906104b9908216613b46565b6104c161448f565b5f5b8281106104cc57005b806104da6001928587613b81565b355f526005865260405f20838382015460a01c168061051b575b610500575b50016104c3565b6105159061050f838789613b81565b35614f99565b866104f9565b5083600382015460081c16156104f4565b346102915761053a366135b1565b905f52600860205260405f20905f526020526101c060405f2080549060018101549060028101546003820154600483015460058401546006850154600786015490600887015492600988015494600a89015496600b8a01549860ff600d600c8d01549c0154169b60206040519e8f908152015260408d015260608c015260808b015260a08a015260c089015260e088015261010087015261012086015261014085015261016084015261018083015215156101a0820152f35b346102915760203660031901126102915761060c61359b565b5f60065461061981613b00565b926106238261424e565b915f915f5b8281106107325750505061063b81613b00565b916106458261424e565b945f5b8381106106f257868661066c876040519283526060602084015260608301906135c7565b918183036040830152805180845260208401906020808260051b8701019301915f905b82821061069c5785850386f35b90919293601f19878203018252845190602080835192838152019201905f905b8082106106da5750505060208060019296019201920190929161068f565b909192602080600192865181520194019201906106bc565b806106ff60019284613b32565b5161070a8288613b32565b526107158185613b32565b51610720828a613b32565b5261072b8189613b32565b5001610648565b92909391959461074184613740565b91905494858360031b1c5f52600960205260405f2060018060a01b0388165f5260205260405f2090604051808360208295549384815201905f5260205f20925f905b8082106109ae5750506107989250038361367d565b6107a28251613b00565b945f965f5b8451811015610911576107ba8186613b32565b518a888d6107ce8185858560031b1c613f9c565b6107df575b505050506001016107a7565b826108e585846108ed946108f39760019a999f9760031b1c5f526008928360205260405f20815f5260205260405f20936040519661081c88613646565b855488528c948587015460208a0152600287015460408a0152600387015460608a0152600487015460808a0152600587015460a08a0152600687015460c08a01526007928388015460e08b01528701546101008a015260098701546101208a0152600a8701546101408a0152600b870154986101608101998a526101a060ff600d600c8b01549a61018085019b8c52015416151591015260031b1c5f5260205260405f20905f5260205260405f20908a8060a01b03165f5260205260405f2001549051906141ec565b9051906141ff565b90613aad565b966109076109008c613f8e565b9b8b613b32565b52908a888d6107d3565b5098969250969093999492989982610933575b50505050600101919091610628565b60039794971b1c610944848b613b32565b5261094e81613b00565b6109588489613b32565b526109638388613b32565b505f5b8181106109855750505061097b600191613f8e565b9390888080610924565b8061099260019285613b32565b516109a7826109a1888d613b32565b51613b32565b5201610966565b9160019193506020829186548152019401920185929391610783565b3461029157602080600319360112610291576004356001600160401b038111610291576109fb9036906004016135fa565b335f9081525f8051602061561a833981519152602052604090205460ff90610a24908216613b46565b610a2c61448f565b5f5b828110610a3757005b80610a456001928587613b81565b355f526005865260405f20838382015460a01c1680610a99575b80610a8c575b610a71575b5001610a2e565b610a8690610a80838789613b81565b35614bf4565b86610a6a565b5083600382015416610a65565b5083600382015460081c16610a5f565b34610291576040366003190112610291576004356001600160401b03811161029157610ad99036906004016135fa565b906024356001600160401b03811161029157610af99036906004016135fa565b610b049291926144b9565b610b0f333b15613888565b610b1a3233146138cb565b610b25818514613bc9565b5f935f5b818110610b5a578580610b4a575b60015f805160206155da83398151915255005b610b549033614fc9565b80610b37565b610b65818386613b81565b35600454811080610e2c575b610b7f575b50600101610b29565b83821015610e185760059082821b870135601e1988360301811215610291578701916001600160401b03833511610291578235811b36036020840113610291575f5b83358110610bd157505050610b76565b610be081853560208701613b81565b35835f526008908160205260405f20815f5260205260018060405f200154151580610df7575b610c16575b505050600101610bc1565b5f92865f528060205260405f20835f5260205260ff600d91818360405f200154165f14610db957610c4833868b613f9c565b610cc9575b5050505b8215610c0b57610c9483600195949e8893845f52600760205260405f20865f5260205260405f20335f52602052600260405f20019060ff19825416179055613aad565b9c6040519081527f45c072aa05b9853b5a993de7a28bc332ee01404a628cec1a23ce0f659f842ef160203392a4908b80610c0b565b610db0939550906108e591895f528060205260405f20865f5260205260405f20916101a060405191610cfa83613646565b845483528985015460208401526002850154604084015260038501546060840152600485015460808401528b85015460a0840152600685015460c08401526007938486015460e08501528501546101008401526009850154610120840152600a850154610140840152600b850154966101608401978852600c8601549561018085019687520154161515910152895f5260205260405f20855f5260205260405f20335f526020528560405f2001549051906141ec565b918d8080610c4d565b505050610dc7338388614297565b15610c51579150845f52600760205260405f20815f5260205260405f20335f526020528160405f20015491610c51565b50855f528260205260405f20825f52602052600360405f2001544211610c06565b634e487b7160e01b5f52603260045260245ffd5b50805f52600560205260ff600160405f20015460a01c16610b71565b3461029157610e56366135b1565b610e5e614bc9565b335f9081525f8051602061555a8339815191526020908152604090912054909190610e8b9060ff16613b91565b610e986004548410613917565b825f5260058252610eb560ff600160405f20015460a01c1661395a565b8015610ef757907f90eb87c560a0213754ceb3a7fa3012f01acab0a35602c1e1995adf69dabc9d5091835f526005825280600260405f200155604051908152a2005b60405162461bcd60e51b815260048101839052601660248201527504d7573742062652067726561746572207468616e20360541b6044820152606490fd5b3461029157604036600319011261029157610f7e600435610f54613585565b90805f525f8051602061559a833981519152602052610f79600160405f2001546148fd565b614b4a565b005b3461029157610f8e36613716565b915f52600760205260405f20905f5260205260405f209060018060a01b03165f5260205260405f2060ff8154169060ff6002600183015492015416604051916002841015610fe9576060938352602083015215156040820152f35b634e487b7160e01b5f52602160045260245ffd5b34610291576020366003190112610291576004355f52600560205261106260405f20611028816137c2565b90600181015490600281015490600381015460ff600483015491600660058501549401549482604051998a99610120808c528b0190613864565b9760018060a01b03811660208b015260a01c161515604089015260608801528181161515608088015260081c16151560a086015260c085015260e08401526101008301520390f35b34610291576020366003190112610291577f93ccaceac092ffb842c46b8718667a13a80e9058dcd0bd403d0b47215b30da0760206004356110e9614bc9565b5f805160206155fa8339815191525f525f8051602061559a833981519152825260405f20335f52825261112260ff60405f205416613b91565b80600355604051908152a1005b34610291575f366003190112610291576020600254604051908152f35b3461029157606036600319011261029157335f9081525f8051602061555a83398151915260209081526040909120546044359060ff906024359060043590611195908416613b91565b6111a26004548210613917565b805f52600585526001946111c260ff600160405f20015460a01c1661395a565b8483116113425760646111d5848761419d565b116112fe575f8281526005808352604091829020908101546001918201548351630b39449560e01b81526001600160a01b039091166004820152602481018290526001600160501b03918216979296919381604481305afa90815f915f936112cb575b506112c0575b50505b8781111561124b57005b61128090855f526008855260405f20815f52855260405f208a810154151590816112b1575b81611298575b5061128557613f8e565b611241565b61129387858a168389615056565b613f8e565b6112a99150600301545f5490613aad565b42118b611276565b600d8101548516159150611270565b97509550898061123e565b9092506112f0915060403d6040116112f7575b6112e8818361367d565b810190614231565b918c611238565b503d6112de565b6064906040519062461bcd60e51b82526004820152601a60248201527f546f6f206d616e7920726f756e647320746f2070726f636573730000000000006044820152fd5b6064906040519062461bcd60e51b825260048201526013602482015272496e76616c69642065706f63682072616e676560681b6044820152fd5b3461029157602080600319360112610291576004355f805160206155fa8339815191525f525f8051602061559a833981519152825260405f20335f5282526113ca60ff60405f205416613b91565b6113d76004548210613917565b5f81815260058352604090206001908101805460ff60a01b19811660a091821c60ff9081161590921b60ff60a01b16178255919391905460a01c16156114a9575f80600654905b81811061147e575b50507ff8064aa641ca9da50fdf66b29081711521b9a4fec319fa5f0bc880547779dc54929360ff9115611470575b845f526005835260405f20015460a01c166040519015158152a2005b61147985613aba565b611454565b8461148882613740565b90549060031b1c1461149b57850161141e565b5084915081905060ff611426565b5f835b6114dc575b5060ff7ff8064aa641ca9da50fdf66b29081711521b9a4fec319fa5f0bc880547779dc549293611454565b60068054808310156115c75784906114f384613740565b929054600393841b1c1461150c575050508301836114ac565b5f969293959619958682019182116115b35761153961152d61155193613740565b905490851b1c91613740565b90919082549060031b91821b915f19901b1916179055565b825492831561159f57857ff8064aa641ca9da50fdf66b29081711521b9a4fec319fa5f0bc880547779dc549660ff95019261158b84613740565b81939154921b1b19169055559392506114b1565b634e487b7160e01b5f52603160045260245ffd5b634e487b7160e01b5f52601160045260245ffd5b50506114b1565b34610291576080366003190112610291576001600160401b03600435602435828111610291576116029036906004016136d0565b916044356001600160a01b0381169081900361029157335f9081525f8051602061555a8339815191526020908152604090912054909260643592916116499060ff16613b91565b6116566004548610613917565b845f5260058452600161167460ff8260405f20015460a01c1661395a565b855f526005855260405f209187519081611711575b505091837fa0795b9c719dd071b4a308a87b60a4a025696362c869737ce3d7de092882ce31969794926116da9694836116f3575b50816116e8575b5050604051948594606086526060860190613864565b9284015260408301520390a2005b6002015581886116c4565b810180546001600160a01b031916841790555f6005820155896116bd565b811161186657611721835461378a565b601f8111611820575b5085601f821160011461179857926116da969492828795937fa0795b9c719dd071b4a308a87b60a4a025696362c869737ce3d7de092882ce319a9b98945f9161178d575b505f19600383901b1c191690821b1782555b9294965092949796611689565b90508801518c61176e565b601f19821690845f52875f20915f5b81811061180b5750938388969382937fa0795b9c719dd071b4a308a87b60a4a025696362c869737ce3d7de092882ce319c9d9a966116da9c9a98106117f3575b5050811b018255611780565b8a01515f1960f88460031b161c191690558c806117e7565b8b8301518455928501929189019189016117a7565b835f52865f20601f830160051c81019188841061185c575b601f0160051c019083905b82811061185157505061172a565b5f8155018390611843565b9091508190611838565b634e487b7160e01b5f52604160045260245ffd5b34610291576040366003190112610291576024356001600160401b038111610291576118aa9036906004016135fa565b906118b36144b9565b6118be333b15613888565b6118c93233146138cb565b6118d860045460043510613917565b6004355f5260056020526118f860ff600160405f20015460a01c1661395a565b5f915f5b81811061191c578380610b4a5760015f805160206155da83398151915255005b6004355f526008908160205260405f20611937828587613b81565b355f52602052600160405f20015415611ce4576004355f528160205260405f20611962828587613b81565b355f5260205260405f206040519261197984613646565b815484526001820154602085015260028201546040850152600382015491606085019280845260ff600d6004840154936080890194855260058101549560a08a01968752600682015460c08b0152600782015460e08b01528101546101008a015260098101546101208a0152600a8101546101408a0152600b8101546101608a0152600c8101546101808a01520154161515806101a08801525f14611c3d5750518015159182611c32575b82611c27575b505080611c1a575b15611b5857509050611a5233611a49838587613b81565b35600435614297565b15611b13576001906004355f52600760205260405f20611a73828587613b81565b355f5260205260405f20335f52602052611acf8260405f20015480965b6004355f52600760205260405f20611aa985888a613b81565b355f5260205260405f20335f52602052600260405f20018560ff19825416179055613aad565b94611adb828587613b81565b3590604051908152600435907f45c072aa05b9853b5a993de7a28bc332ee01404a628cec1a23ce0f659f842ef160203392a4016118fc565b60405162461bcd60e51b815260206004820152601f60248201527f4e6f7420656c696769626c6520666f722074696d656f757420726566756e64006044820152606490fd5b611b64905142116141aa565b611b7c33611b73838688613b81565b35600435613f9c565b15611bdc57611acf611bd56001936004355f52600760205260405f20611ba385888a613b81565b355f5260205260405f20335f52602052610160611bcc8660405f200154610180840151906141ec565b910151906141ff565b8096611a90565b60405162461bcd60e51b81526020600482015260166024820152754e6f7420656c696769626c6520666f7220636c61696d60501b6044820152606490fd5b5061018083015115611a32565b511490508780611a2a565b805115159250611a24565b92505050611c4e91925042116141aa565b611c5d33611a49838587613b81565b15611c9f576001906004355f52600760205260405f20611c7e828587613b81565b355f5260205260405f20335f52602052611acf8260405f2001548096611a90565b60405162461bcd60e51b815260206004820152601760248201527f4e6f7420656c696769626c6520666f7220726566756e640000000000000000006044820152606490fd5b60405162461bcd60e51b8152602060048201526015602482015274149bdd5b99081a185cc81b9bdd081cdd185c9d1959605a1b6044820152606490fd5b3461029157608036600319011261029157600435611d3d613585565b906044359160643592825f526009926020926009845260405f209060018060a01b031690815f528452611d748360405f205461419d565b8611611dfa575b611d8486613b00565b945f5b878110611db957611db18787611d9d8b89613aad565b6040519384936040855260408501906135c7565b918301520390f35b600190845f5282875260405f20845f528752611de260405f20611ddc8389613aad565b90613775565b90549060031b1c611df3828a613b32565b5201611d87565b9450805f526009835260405f20855f528352611e1a8260405f205461419d565b94611d7b565b346102915760203660031901126102915760043560065481101561029157611e49602091613740565b90546040519160031b1c8152f35b34610291575f3660031901126102915760206040515f8152f35b3461029157602036600319011261029157600435611e8d6144b9565b335f9081525f8051602061555a8339815191526020526040902054611eb49060ff16613b91565b611ec16004548210613917565b805f5260056020527f9434d8733ad17243450e84692debfe38fc88a2cc8ab2dacbdc90abca78cd17fd6020600660405f20015f81549155611f028133614fc9565b604051908152a260015f805160206155da83398151915255005b3461029157604036600319011261029157611f35613585565b6004355f525f8051602061559a83398151915260205260405f209060018060a01b03165f52602052602060ff60405f2054166040519015158152f35b3461029157611f7f366135b1565b611f87614bc9565b335f9081525f8051602061555a8339815191526020526040902054611fae9060ff16613b91565b80821015611fef57816040917fe60149e0431fec12df63dfab5fce2a9cefe9a4d3df5f41cb626f579ae1f2b91a935f558060015582519182526020820152a1005b60405162461bcd60e51b815260206004820152602f60248201527f6275666665725365636f6e6473206d757374206265206c657373207468616e2060448201526e696e74657276616c5365636f6e647360881b6064820152608490fd5b3461029157602036600319011261029157335f9081525f8051602061561a8339815191526020526040902054610f7e906004359061208c9060ff16613b46565b61209461448f565b6120a16004548210613917565b805f5260056020526120bf60ff600160405f20015460a01c1661395a565b805f52600560205260405f20906120e060ff600384015460081c1615613c0e565b614f99565b346102915760c0366003190112610291576120fe61359b565b612106613585565b6084357ff0c57e16840df040f15088dc2f81fe391c3923bec73e23a9662efc9c229c6a009283549260ff8460401c1615936001600160401b03811680159081612282575b6001149081612278575b15908161226f575b5061225d5767ffffffffffffffff19811660011786556121e6926121e0918661223e575b506121d16103e886111561219381614159565b61219b6152a5565b6121a36152a5565b6121ab6152a5565b6121b36152a5565b60015f805160206155da833981519152556121cc6152a5565b614159565b6121da81614949565b506149d3565b50614a5a565b506044356001556064355f5560025560a43560035561220157005b68ff00000000000000001981541690557fc7f505b2f371ae2175ee4913f4499e1f2633a7b5936321eed1cdaeb6115181d2602060405160018152a1005b68ffffffffffffffffff19166801000000000000000117875587612180565b60405163f92ee8a960e01b8152600490fd5b9050158761215c565b303b159150612154565b86915061214a565b34610291575f36600319011261029157335f9081525f8051602061555a833981519152602090815260409091205460ff165f8051602061559a833981519152811561235b575b5015612322577f62e78cea01bee320cd4e420270b5ea74000d11b0c9f74754ebdbfc544b05a2589061230061448f565b5f805160206155ba833981519152805460ff19166001179055604051338152a1005b6064906040519062461bcd60e51b8252600482015260126024820152712737ba1037b832b930ba37b917b0b236b4b760711b6044820152fd5b90505f8051602061557a8339815191525f52815260405f20335f52815260ff60405f205416826122d0565b346102915760603660031901126102915761239f613585565b604435906004355f52600960205260405f209060018060a01b03165f5260205260405f20805482101561029157602091611e4991613775565b34610291575f366003190112610291576020600154604051908152f35b34610291576020366003190112610291575f805f9161241960045460043510613917565b6004355f52600560205260405f20916006604051936124378561362a565b612440816137c2565b855260ff600182015460018060a01b038116602088015260a01c16151560408601526002810154606086015260ff60038201548181161515608088015260081c16151560a0860152600481015460c0860152600581015460e086015201548061010085015260015b60c085015181116125e3576004355f52600860205260405f20815f5260205260405f20604051906124d882613646565b8054825260018101546020830152600281015460408301526003810154606083015260048101546080830152600581015460a0830152600681015460c0830152600781015460e083015260ff600d600883015492836101008601526009810154610120860152600a810154610140860152600b810154610160860152600c81015461018086015201541615156101a083015280612584575b505061257d60c091613f8e565b90506124a8565b61259390612599929895613aad565b93613f8e565b956101208101516125ce575b61014001516125b6575b8680612570565b9261257d6125c560c092613f8e565b949150506125af565b936125db61014091613f8e565b9490506125a5565b608084878486604051938452602084015260408301526060820152f35b3461029157602080600319360112610291576004355f8051602061557a8339815191525f525f8051602061559a833981519152825260405f20335f52825261264e60ff60405f205416613b46565b61265661448f565b6126636004548210613917565b805f526005825261268060ff600160405f20015460a01c1661395a565b805f526005825260405f2090600382015460ff8160081c1690816126f4575b50156126af57610f7e9250614bf4565b60405162461bcd60e51b815260048101849052601a60248201527f43616e206f6e6c792072756e2061667465722067656e657369730000000000006044820152606490fd5b60ff9150168461269f565b34610291576020366003190112610291577f938d9272b26145999fe14f6124b73f122e1e023fc5de069c74ade1254408a976602060043561273e614bc9565b5f805160206155fa8339815191525f525f8051602061559a833981519152825260405f20335f52825261277760ff60405f205416613b91565b6127856103e8821115614159565b80600255604051908152a1005b34610291575f3660031901126102915760206040515f805160206155fa8339815191528152f35b34610291575f366003190112610291576020600354604051908152f35b34610291575f36600319011261029157602060ff5f805160206155ba83398151915254166040519015158152f35b3461029157602061028761281736613716565b91613f9c565b34610291576060366003190112610291576004356001600160401b0381116102915761286361285260209236906004016136d0565b61285a613585565b60443591613c4e565b604051908152f35b3461029157602080600319360112610291576004355f8051602061557a8339815191525f525f8051602061559a833981519152825260405f20335f5282526128b960ff60405f205416613b46565b6128c161448f565b6128ce6004548210613917565b805f52600582526128eb60ff600160405f20015460a01c1661395a565b805f526005825260405f209060038201549260ff8460081c161561291f575061291a60ff610f7e941615613c0e565b614540565b6084906040519062461bcd60e51b825260048201526024808201527f43616e206f6e6c792072756e2061667465722067656e657369735374617274526044820152631bdd5b9960e21b6064820152fd5b34610291575f36600319011261029157335f9081525f8051602061555a83398151915260205260409020546129a69060ff16613b91565b6129ae614bc9565b5f805160206155ba83398151915260ff1981541690557f5db9ee0a495bf2e6ff9c91a7834c1ba4fdd244a5e8aa4e537bd38aeae4b073aa6020604051338152a1005b6129f9366135b1565b90612a0261448f565b612a0a6144b9565b612a15333b15613888565b612a203233146138cb565b612a2d6004548210613917565b805f52602060058152612a4c60ff600160405f20015460a01c1661395a565b815f5260058152612a65600460405f2001548414613999565b612a77612a7284846144e8565b6139dd565b815f5260058152612a91600260405f200154341015613a1e565b815f526007815260405f20835f52815260405f20335f528152612abb600160405f20015415613a61565b815f526008815260405f20835f528152600960405f2060088101612ae0348254613aad565b905501612aee348254613aad565b9055815f526007815260405f20835f52815260405f20335f52815260405f2060ff198154168155600134910155815f526009815260405f20335f528152612b388360405f20613add565b7fcb77e9d37f3266dfa837311587444237bab09aaec52fd3aaa6abb19168da73fa604051913483523392a460015f805160206155da83398151915255005b3461029157604036600319011261029157612b8f613585565b336001600160a01b03821603612bab57610f7e90600435614b4a565b60405163334bd91960e11b8152600490fd5b34610291576060366003190112610291576004356001600160401b038082116102915736602383011215610291576024916004810135612bfc8161369e565b91612c0a604051938461367d565b818352602091858385019160051b8301019136831161029157868101915b838310612db05750505050833592808411610291573660238501121561029157836004013593612c578561369e565b94612c65604051968761367d565b808652868487019160051b83010191368311610291578701905b828210612d91575050506044359081116102915736602382011215610291578060040135612cac8161369e565b95612cba604051978861367d565b818752808488019260051b8401019236841161029157019083905b838310612d8157505050505f805160206155fa8339815191525f525f8051602061559a833981519152815260405f2090335f5252612d1960ff60405f205416613b91565b612d30815183518091149081612d76575b50613bc9565b5f5b8151811015610f7e5780612d6f612d4b60019385613b32565b51838060a01b03612d5c8488613b32565b5116612d688489613b32565b5191613c4e565b5001612d32565b905084511485612d2a565b8235815291810191849101612cd5565b81356001600160a01b0381168103610291578152908401908401612c7f565b8235878111610291578591612dcb83928b36918701016136d0565b815201920191612c28565b3461029157604036600319011261029157610f7e600435612df5613585565b90805f525f8051602061559a833981519152602052612e1a600160405f2001546148fd565b614ada565b34610291576020366003190112610291576004355f525f8051602061559a8339815191526020526020600160405f200154604051908152f35b3461029157602080600319360112610291576004356001600160401b03811161029157612e899036906004016135fa565b335f9081525f8051602061561a833981519152602052604090205460ff90612eb2908216613b46565b612eba61448f565b5f5b828110612ec557005b80612ed36001928587613b81565b355f526005865260405f20838382015460a01c1680612f28575b80612f1a575b612eff575b5001612ebc565b612f1490612f0e838789613b81565b35614540565b86612ef8565b508360038201541615612ef3565b5083600382015460081c16612eed565b34610291575f36600319011261029157600654612f5481613b00565b612f5d82613b00565b612f668361369e565b92612f74604051948561367d565b808452612f808161369e565b9160209182860193601f19013685375f5b818110612fff5750509381612fc4612fb7966040519788976060895260608901906135c7565b90878203848901526135c7565b91858303604087015251918281520192915f5b828110612fe657505050500390f35b8351151585528695509381019392810192600101612fd7565b8061300f60019298969798613740565b90549060031b1c80613021838b613b32565b52805f52600590818752600460405f20015461303d8488613b32565b525f52855260ff8260405f20015460a01c166130598288613b32565b90151590520195949395612f91565b34610291575f36600319011261029157604051806006549182815260208091019260065f527ff652222313e28459528d920b65115c16c04f3efc82aaedc97be59f3f377c0d3f915f905b8282106130e1576130dd856130c98189038261367d565b6040519182916020835260208301906135c7565b0390f35b8354865294850194600193840193909101906130b2565b613101366135b1565b9061310a61448f565b6131126144b9565b61311d333b15613888565b6131283233146138cb565b6131356004548210613917565b805f5260206005815261315460ff600160405f20015460a01c1661395a565b815f526005815261316d600460405f2001548414613999565b61317a612a7284846144e8565b815f5260058152613194600260405f200154341015613a1e565b815f526007815260405f20835f52815260405f20335f5281526131be600160405f20015415613a61565b815f526008815260405f20835f528152600a60405f20600881016131e3348254613aad565b9055016131f1348254613aad565b9055815f526007815260405f20835f52815260405f20335f52815260405f20600160ff19825416178155600134910155815f526009815260405f20335f52815261323e8360405f20613add565b7f8298401b34e7a37e8cee2e7f874cc85e6da5336db97f3d80888dc447373ad3c3604051913483523392a460015f805160206155da83398151915255005b34610291576040366003190112610291576004356001600160a01b03811690819003610291576024359080156134b75760035460049260a06132be8342613aad565b9360405195868092633fabe5a360e21b82525afa9081156134ac575f935f955f9361346f575b508211613413578061330a575b604084866001600160501b038351921682526020820152f35b6001600160501b038416818103613396575050613327904261419d565b9060011c1061333c576040915b9183806132f1565b60405162461bcd60e51b815260206004820152602c60248201527f4f7261636c65206461746120746f6f207374616c65206576656e20776974682060448201526b1cd85b59481c9bdd5b99125960a21b6064820152608490fd5b9150915011156133a857604091613334565b60405162461bcd60e51b815260206004820152603d60248201527f4f7261636c652075706461746520726f756e644964206d757374206265206c6160448201527f72676572207468616e206f7261636c654c6174657374526f756e6449640000006064820152608490fd5b60405162461bcd60e51b815260206004820152602e60248201527f4f7261636c6520757064617465206578636565646564206d61782074696d657360448201526d74616d7020616c6c6f77616e636560901b6064820152608490fd5b9194509450613496915060a03d60a0116134a5575b61348e818361367d565b81019061445a565b509592905093909491866132e4565b503d613484565b6040513d5f823e3d90fd5b60405162461bcd60e51b815260206004820152600e60248201526d13dc9858db19481b9bdd081cd95d60921b6044820152606490fd5b346102915760203660031901126102915760043563ffffffff60e01b811680910361029157602090637965db0b60e01b8114908115613532575b506040519015158152f35b6301ffc9a760e01b14905082613527565b346102915760403660031901126102915760209061355f613585565b6004355f9081526009845260408082206001600160a01b03909316825291845220548152f35b602435906001600160a01b038216820361029157565b600435906001600160a01b038216820361029157565b6040906003190112610291576004359060243590565b9081518082526020808093019301915f5b8281106135e6575050505090565b8351855293810193928101926001016135d8565b9181601f84011215610291578235916001600160401b038311610291576020808501948460051b01011161029157565b61012081019081106001600160401b0382111761186657604052565b6101c081019081106001600160401b0382111761186657604052565b606081019081106001600160401b0382111761186657604052565b90601f801991011681019081106001600160401b0382111761186657604052565b6001600160401b0381116118665760051b60200190565b6001600160401b03811161186657601f01601f191660200190565b81601f82011215610291578035906136e7826136b5565b926136f5604051948561367d565b8284526020838301011161029157815f926020809301838601378301015290565b60609060031901126102915760043590602435906044356001600160a01b03811681036102915790565b600654811015610e185760065f527ff652222313e28459528d920b65115c16c04f3efc82aaedc97be59f3f377c0d3f01905f90565b8054821015610e18575f5260205f2001905f90565b90600182811c921680156137b8575b60208310146137a457565b634e487b7160e01b5f52602260045260245ffd5b91607f1691613799565b9060405191825f82546137d48161378a565b908184526020946001916001811690815f146138425750600114613804575b5050506138029250038361367d565b565b5f90815285812095935091905b81831061382a57505061380293508201015f80806137f3565b85548884018501529485019487945091830191613811565b9250505061380294925060ff191682840152151560051b8201015f80806137f3565b805180835260209291819084018484015e5f828201840152601f01601f1916010190565b1561388f57565b60405162461bcd60e51b815260206004820152601460248201527310dbdb9d1c9858dd081b9bdd08185b1b1bddd95960621b6044820152606490fd5b156138d257565b60405162461bcd60e51b815260206004820152601a60248201527f50726f787920636f6e7472616374206e6f7420616c6c6f7765640000000000006044820152606490fd5b1561391e57565b60405162461bcd60e51b8152602060048201526014602482015273105cdcd95d08191bd95cc81b9bdd08195e1a5cdd60621b6044820152606490fd5b1561396157565b60405162461bcd60e51b815260206004820152601060248201526f4173736574206e6f742061637469766560801b6044820152606490fd5b156139a057565b60405162461bcd60e51b815260206004820152601560248201527442657420697320746f6f206561726c792f6c61746560581b6044820152606490fd5b156139e457565b60405162461bcd60e51b8152602060048201526012602482015271526f756e64206e6f74206265747461626c6560701b6044820152606490fd5b15613a2557565b60405162461bcd60e51b815260206004820152601460248201527310995d08185b5bdd5b9d081d1bdbc81cdb585b1b60621b6044820152606490fd5b15613a6857565b60405162461bcd60e51b815260206004820152601b60248201527f43616e206f6e6c7920626574206f6e63652070657220726f756e6400000000006044820152606490fd5b919082018092116115b357565b60065490600160401b821015611866576115398260016138029401600655613740565b90815491600160401b831015611866578261153991600161380295018155613775565b90613b0a8261369e565b613b17604051918261367d565b8281528092613b28601f199161369e565b0190602036910137565b8051821015610e185760209160051b010190565b15613b4d57565b60405162461bcd60e51b815260206004820152600c60248201526b2737ba1037b832b930ba37b960a11b6044820152606490fd5b9190811015610e185760051b0190565b15613b9857565b60405162461bcd60e51b81526020600482015260096024820152682737ba1030b236b4b760b91b6044820152606490fd5b15613bd057565b60405162461bcd60e51b8152602060048201526016602482015275082e4e4c2f2e640d8cadccee8d040dad2e6dac2e8c6d60531b6044820152606490fd5b15613c1557565b60405162461bcd60e51b815260206004820152601160248201527043616e206f6e6c792072756e206f6e636560781b6044820152606490fd5b335f9081525f8051602061555a8339815191526020526040902054929392613c789060ff16613b91565b6001600160a01b03821615613f50578315613f125760045491613c9a83613f8e565b60045560405194613caa8661362a565b82865260018060a01b03821660208701526001604087015260608601525f60808601525f60a08601525f60c08601525f60e08601525f610100860152825f52600560205260405f2085519586516001600160401b03811161186657613d0f835461378a565b97601f8911613ed1575b86979850602090601f8311600114613e3b57613e1a9593837f6c60221bfa5c9c4ee8109ba8562fc401aa92a46606a02d979f9de6a8f97c2d0a989694600694610100945f92613e30575b50508160011b915f199060031b1c19161784555b6020810151600185018054604084015160ff60a01b90151560a01b166001600160a01b039093166001600160a81b031990911617919091179055606081015160028501556003840160808201511515815460ff61ff0060a0860151151560081b1692169061ffff19161717905560c0810151600485015560e081015160058501550151910155613e0685613aba565b604051928392604084526040840190613864565b6001600160a01b0390911660208301520390a290565b015190505f80613d63565b90845f5260205f20915f5b601f1985168110613eb657509360018460069461010094613e1a9a987f6c60221bfa5c9c4ee8109ba8562fc401aa92a46606a02d979f9de6a8f97c2d0a9c9a98601f19811610613e9e575b505050811b018455613d77565b01515f1960f88460031b161c191690555f8080613e91565b8183015184558a995060019093019260209283019201613e46565b835f5260205f20601f830160051c810160208410613f0b575b601f8b0160051c82018110613f00575050613d19565b5f8155600101613eea565b5080613eea565b60405162461bcd60e51b8152602060048201526016602482015275125b9d985b1a59081b5a5b8818995d08185b5bdd5b9d60521b6044820152606490fd5b60405162461bcd60e51b8152602060048201526016602482015275496e76616c6964206f7261636c65206164647265737360501b6044820152606490fd5b5f1981146115b35760010190565b919091805f5260209060078252604092835f20855f528352835f209060018060a01b03165f528252825f2090835192613fd484613662565b60ff835416956002871015610fe9576101a096855260ff60026001860154958488019687520154169286860193151584525f5260088252855f20905f528152845f209480519161402383613646565b8654835260018701549083015260028601549082015260038501546060820152600485015491608082019383855260058701549260ff600d60a0830199868b52600681015460c0850152600781015460e085015260088101546101008501526009810154610120850152600a810154610140850152600b810154610160850152600c8101546101808501520154161515988991015282841461414d5787614142575b5086614138575b50856140db575b505050505090565b139350909183614124575b83156140fa575b5050505f808080806140d3565b5190511391508161410f575b505f80806140ed565b9050516002811015610fe9576001145f614106565b925081516002811015610fe95715926140e6565b511595505f6140cc565b51151596505f6140c5565b50505050505050505f90565b1561416057565b60405162461bcd60e51b81526020600482015260156024820152740a8e4cac2e6eae4f240cccaca40e8dede40d0d2ced605b1b6044820152606490fd5b919082039182116115b357565b156141b157565b60405162461bcd60e51b8152602060048201526013602482015272149bdd5b99081a185cc81b9bdd08195b991959606a1b6044820152606490fd5b818102929181159184041417156115b357565b8115614209570490565b634e487b7160e01b5f52601260045260245ffd5b51906001600160501b038216820361029157565b91908260409103126102915760206142488361421d565b92015190565b906142588261369e565b614265604051918261367d565b8281528092614276601f199161369e565b01905f5b82811061428657505050565b80606060208093850101520161427a565b919091805f52602060078152604092835f20855f528252835f209060018060a01b03165f528152825f20938351926142ce84613662565b60ff8654166002811015610fe95784528460ff6002600189015498868801998a52015416940193151584525f5260088252835f20905f528152825f209280519161431783613646565b845483526001850154908301526002840154908201526003830154938460608301526004840154946080830195865260058501549360a08401948552600686015460c0850152600786015460e085015260088601546101008501526009860154610120850152600a860154610140850152600b8601546101608501526101a060ff600d600c890154986101808801998a52015416940193159283158552511590811561444f575b506144455781614430575b5061442757511515928361441c575b83614411575b83614404575b5050816143fa575b506143f5575f90565b600190565b905051155f6143ec565b5190511491505f806143e4565b8151151593506143de565b8051151593506143d8565b50505050600190565b61443d91505f5490613aad565b42115f6143c9565b5050505050505f90565b90505115155f6143be565b908160a09103126102915761446e8161421d565b9160208201519160408101519161448c60806060840151930161421d565b90565b60ff5f805160206155ba83398151915254166144a757565b60405163d93c066560e01b8152600490fd5b5f805160206155da83398151915260028154146144d65760029055565b604051633ee5aeb560e01b8152600490fd5b5f52600860205260405f20905f5260205260405f206001810154908115159182614532575b82614528575b508161451d575090565b600291500154421090565b421191505f614513565b60028201541515925061450d565b61454a82826150e0565b156145605750600301805460ff19166001179055565b60018281015460058401805460408051630b39449560e01b81526001600160a01b039485166004808301919091526024820193909352949687969095929490939192908382604481305afa91825f915f946148dc575b5061468a575050506001600160501b03905416827f16095f6b56c49bd42b5b7eeaa5d6f06f8de4decfa2aea75d8e3648d436a993196020868801946008865495855f52818452825f20875f528452825f20908a820180541561467c575b5460058301556007820155600d810160ff199d8e8254161790555f600b8201555f600c82015501549051908152a380549285840180941161466957509161465f91816003959455615204565b0191825416179055565b601190634e487b7160e01b5f525260245ffd5b8d8155816006840155614613565b6001600160501b03919295969798509392931680935585870193845492865f5260209260088452815f20855f5284528a825f2001541561489957875f5260088452815f20855f5284526002825f200154421061484c57875f5260088452815f20855f5284526147016002835f2001545f5490613aad565b42116147fe57838991895f5260088252835f20875f528252876006855f2087868201550155895f52600582528c845f2001541683519283809263313ce56760e01b82525afa9384156147f457917f52d97b0ee6f8378e57f7634b7eec12898a3bd772e357496e6f4614e76676974493918995935f946147bf575b50505190815260ff909116602082015280604081015b0390a48054928584018094116146695750916147b291816003959455615204565b019060ff19825416179055565b61479192945090816147e592903d106147ed575b6147dd818361367d565b8101906151eb565b92905f61477b565b503d6147d3565b82513d5f823e3d90fd5b815162461bcd60e51b8152808a01859052602260248201527f43616e206f6e6c79206c6f636b2077697468696e206275666665725365636f6e604482015261647360f01b6064820152608490fd5b815162461bcd60e51b8152808a01859052602160248201527f43616e206f6e6c79206c6f636b206166746572206c6f636b54696d657374616d6044820152600760fc1b6064820152608490fd5b815162461bcd60e51b8152808a01859052601960248201527f43616e206f6e6c79206c6f636b206166746572207374617274000000000000006044820152606490fd5b9093506148f69150853d87116112f7576112e8818361367d565b925f6145b6565b805f525f8051602061559a83398151915260205260405f20335f5260205260ff60405f2054161561492b5750565b6044906040519063e2517d3f60e01b82523360048301526024820152fd5b6001600160a01b03165f8181527fb7db2dd08fcb62d0c9e08c51941cae53c267786a0b75803fb7960902fc8ef97d60205260409020545f8051602061559a8339815191529060ff166149cd575f805260205260405f20815f5260205260405f20600160ff1982541617905533905f5f8051602061553a8339815191528180a4600190565b50505f90565b6001600160a01b03165f8181525f8051602061555a83398151915260205260409020545f805160206155fa83398151915291905f8051602061559a8339815191529060ff16614a5357825f5260205260405f20815f5260205260405f20600160ff1982541617905533915f8051602061553a8339815191525f80a4600190565b5050505f90565b6001600160a01b03165f8181525f8051602061561a83398151915260205260409020545f8051602061557a83398151915291905f8051602061559a8339815191529060ff16614a5357825f5260205260405f20815f5260205260405f20600160ff1982541617905533915f8051602061553a8339815191525f80a4600190565b90815f525f8051602061559a8339815191528060205260405f209160018060a01b031691825f5260205260ff60405f205416155f14614a5357825f5260205260405f20815f5260205260405f20600160ff1982541617905533915f8051602061553a8339815191525f80a4600190565b90815f525f8051602061559a8339815191528060205260405f209160018060a01b031691825f5260205260ff60405f2054165f14614a5357825f5260205260405f20815f5260205260405f2060ff19815416905533917ff6391f5c32d9c69d2a47ea670b442974b53935d1edc7fd64eb21e047a839171b5f80a4600190565b60ff5f805160206155ba833981519152541615614be257565b604051638dfc202b60e01b8152600490fd5b9190614c0081846150e0565b15614c0a57509050565b60018181015460058301805460408051630b39449560e01b81526001600160a01b0390941660048086019190915260248501929092529096939490925f929091908483604481305afa92835f915f95614f78575b50614f605750546001600160501b0316915085905f9089905b0194855493875f5260086001600160501b03602092828452845f20885f5284521693614ca58686898d6152e6565b614d4657614cb58585888c615056565b898611614cf2575b5050505050505b8154938401809411614cdf5750613802939450829055615204565b634e487b7160e01b815260118652602490fd5b8887528152818620905f198601958611614d3357858752528420600d015460ff1615614d21575b808080614cbd565b614d2b9286615056565b5f8080614d19565b634e487b7160e01b875260118c52602487fd5b9190614d548585888c6153ab565b15614f4f575b898611614d6d575b505050505050614cc4565b885f52828152815f205f198701968711614f3c57865f52815260ff600d835f20015416614d6257614da08585888c6154a5565b614dc057505050614db59293505f9386615056565b5f8080808080614d62565b9193509150865f52828152815f20845f528152600b825f2001541580614f20575b15614ee9578692614ea88b7fe7b87c6153dd030991c4b672febb37eaa80bfad412a3990aae7feda89a87e82a94600c94875f52848152815f20895f528152815f2092600584015490840154908181135f14614eb057505060098301549483015492614e5c612710614e54600254876141ec565b04809561419d565b9687915b87600b8201550155875f52600581526005614e81846006855f200154613aad565b91895f52526006825f20015551938493846040919493926060820195825260208201520152565b0390a3614db5565b1215614eda57600a8301549483015492614ed2612710614e54600254876141ec565b968791614e60565b5f945f96879185015494614e60565b8990606492519162461bcd60e51b8352820152601260248201527114995dd85c991cc818d85b18dd5b185d195960721b6044820152fd5b50865f52828152815f20845f528152600c825f20015415614de1565b60118d634e487b7160e01b5f525260245ffd5b614f5b8585888c615056565b614d5a565b91906001600160501b03839493169055888791614c77565b909450614f929150863d88116112f7576112e8818361367d565b935f614c5e565b90600481018054600181018091116115b35760039381614fb99355615204565b01805461ff001916610100179055565b5f80809381935af13d15615051573d614fe1816136b5565b90614fef604051928361367d565b81525f60203d92013e5b1561500057565b60405162461bcd60e51b815260206004820152602360248201527f5472616e7366657248656c7065723a20424e42207472616e73666572206661696044820152621b195960ea1b6064820152608490fd5b614ff9565b9160087f16095f6b56c49bd42b5b7eeaa5d6f06f8de4decfa2aea75d8e3648d436a993199294602092855f5282845260405f20875f52845260405f209160048301908154156150d2575b505460058301556007820155600d8101600160ff198254161790555f600b8201555f600c8201550154604051908152a3565b81558160068401555f6150a0565b91909160048301908154815f52600860205260405f20815f5260205261510f600360405f2001545f5490613aad565b4211948561511e575b50505050565b61517b9160058201916001600160501b03908184541693600460a05f9360018080841b039101541660405192838092633fabe5a360e21b82525afa5f9182918291816151c0575b5061519d5750505050506001925b169084615056565b815490600182018092116115b357816151949355615204565b5f808080615118565b9693966151ad575b505050615173565b91955091509382821690555f80806151a5565b915092506151dd915060a03d60a0116134a55761348e818361367d565b50929050929091905f615165565b90816020910312610291575160ff811681036102915790565b805f52600860205260405f20825f5260205260405f2042600182015561522c60015442613aad565b6002820181905560015491906001600160ff1b03831683036115b357846152777f1b0dc47aa88573ec4c000efee3173499ec8f73def6d94030862002c5fb19c2cf9460011b42613aad565b92836003820155556152a060405192839242846040919493926060820195825260208201520152565b0390a3565b60ff7ff0c57e16840df040f15088dc2f81fe391c3923bec73e23a9662efc9c229c6a005460401c16156152d457565b604051631afcd79f60e31b8152600490fd5b919290926002841115615118576001198401938085116115b35760328511156153a3576033198101908582116115b357603219018091116115b3575b84811115615331575050505050565b61536990845f52602060088152604090815f2090835f52525f20600181015415159081615393575b8161537a575b5061536e57613f8e565b615322565b61129384848388615056565b61538b9150600301545f5490613aad565b42115f61535f565b600d81015460ff16159150615359565b506001615322565b909192815f52602090600882526040805f20855f528352805f2060018101541561549a57600281015480421061414d575f546153e691613aad565b421161549a576006818460048a9401550155835f526005835260048360018060a01b036001845f2001541683519283809263313ce56760e01b82525afa9384156147f457907f52d97b0ee6f8378e57f7634b7eec12898a3bd772e357496e6f4614e766769744949392915f94615475575b50505190815260ff909116602082015280604081015b0390a4600190565b61546d929450908161549292903d106147ed576147dd818361367d565b92905f615457565b505050505050505f90565b909192815f52600860205260405f20835f5260205260405f20600281015415615530576003810154804210614445575f546154df91613aad565b42116155305781600d827f9142252b96a526a7f84e36a81c9ae1d4b390db6a31c5dcc302064b207f6d6c79946005602095015587600782015501600160ff19825416179055604051908152a4600190565b50505050505f9056fe2f8788117e7eff1d82e926ec794901d17c78024a50270940304540a733656f0db16e88c42fd4e48df2dd6a2eabd6bc9aec654ec170056b470819f8892cc6431c97667070c54ef182b0f5858b034beac1b6f3089aa2d3188bb1e8929f4fa9b92902dd7bc7dec4dceedda775e58dd541e08a116c6c53815c0bd028192f7b626800cd5ed15c6e187e77e9aee88184c21f4f2182ab5827cb3b7e07fbedcd63f033009b779b17422d0df92223018b32b4d1fa46e071723d6817e2486d003becc55f00a49807205ce4d355092ef5a8a18f56e8913cf4a201fbe287825b095693c21775448256db8f8fb95ee3eaaf89c1051414494e85cebb6057fcf996cc3d0ccfb456a26469706673582212206d133feeee38ca9e22a91ad9ff4d259782fd5dfc118ea06b5cd2fea5d317dd7a64736f6c63430008190033","linkReferences":{}},"methodIdentifiers":{"ADMIN_ROLE()":"75b238fc","DEFAULT_ADMIN_ROLE()":"a217fddf","MAX_TREASURY_FEE()":"f2b3c809","OPERATOR_ROLE()":"f5b541a6","_safeGetPriceFromOracle(address,uint256)":"0b394495","activeAssetIds(uint256)":"ab7b99ff","addAsset(string,address,uint256)":"418519b7","addMultipleAssets(string[],address[],uint256[])":"32218cce","adminCleanupStuckRounds(uint256,uint256,uint256)":"c796d0c2","assetCount()":"eafe7a74","assets(uint256)":"cf35bdd0","betBear(uint256,uint256)":"0e89e5a4","betBull(uint256,uint256)":"3923e1b4","bufferSeconds()":"eaba2361","claim(uint256,uint256[])":"b1b66652","claimMultipleAssets(uint256[],uint256[][])":"de478395","claimTreasury(uint256)":"9f9357d1","claimable(uint256,uint256,address)":"4dcb2546","executeRound(uint256)":"783cf332","executeRoundBatch(uint256[])":"e1d20def","genesisLockRound(uint256)":"40af6144","genesisLockRoundBatch(uint256[])":"19c66aae","genesisStartRound(uint256)":"876b3595","genesisStartRoundBatch(uint256[])":"e711a119","getActiveAssets()":"0fd8aee8","getAllAssetsStatus()":"15f5f6d6","getAsset(uint256)":"eac8f5b8","getAssetStatistics(uint256)":"7a6539fb","getRoleAdmin(bytes32)":"248a9ca3","getUserRounds(uint256,address,uint256,uint256)":"acecd3f8","getUserRoundsLength(uint256,address)":"01639fd1","getUserTotalClaimable(address)":"e4a78c35","grantRole(bytes32,address)":"2f2ff15d","hasRole(bytes32,address)":"91d14854","initialize(address,address,uint256,uint256,uint256,uint256)":"86489ba9","intervalSeconds()":"7d1cd04f","ledger(uint256,uint256,address)":"d2ef21e0","oracleUpdateAllowance()":"60554011","pause()":"8456cb59","paused()":"5c975abb","refundable(uint256,uint256,address)":"fb1080f7","renounceRole(bytes32,address)":"36568abe","revokeRole(bytes32,address)":"d547741f","rounds(uint256,uint256)":"e6da9213","setBufferAndIntervalSeconds(uint256,uint256)":"890dc766","setMinBetAmount(uint256,uint256)":"dd3045c7","setOracleUpdateAllowance(uint256)":"cf2f5039","setTreasuryFee(uint256)":"77e741c7","supportsInterface(bytes4)":"01ffc9a7","toggleAsset(uint256)":"b68f5c5b","treasuryFee()":"cc32d176","unpause()":"3f4ba83a","updateAsset(uint256,string,address,uint256)":"b2ea136c","userRounds(uint256,address,uint256)":"7e06493e"},"id":50}